:020000040800F2
:10000000600A00207D0800087D0400087F040008C5
:1000100083040008870400088B0400080000000027
:100020000000000000000000000000008F04000835
:1000300091040008000000009304000895040008E3
:100040009708000897080008970800089708000814
:100050009708000897080008970800089708000804
:1000600097080008970800089708000897080008F4
:1000700097080008970800089708000897080008E4
:1000800097080008970800089708000897080008D4
:1000900097080008970800089708000897080008C4
:1000A00097080008970800089708000897080008B4
:1000B00097080008970800089708000897080008A4
:1000C0009708000897080008970800089708000894
:1000D00097080008F107000897080008970800082B
:1000E0009708000897080008970800089708000874
:1000F0009708000897080008970800089708000864
:100100009708000897080008970800089708000853
:100110009708000897080008970800089708000843
:100120009708000897080008970800089708000833
:1001300000F002F800F05FF80AA090E8000C82449A
:100140008344AAF10107DA4501D100F054F8AFF277
:10015000090EBAE80F0013F0010F18BFFB1A43F0A5
:100160000103184718330000383300000A444FF0E9
:10017000000C10F8013B13F0070408BF10F8014B06
:100180001D1108BF10F8015B641E05D010F8016B4B
:10019000641E01F8016BF9D113F0080F1EBF10F8AF
:1001A000014BAD1C0C1B09D16D1E58BF01F801CBD2
:1001B000FAD505E014F8016B01F8016B6D1EF9D555
:1001C0009142D6D37047000000230024002500266A
:1001D000103A28BF78C1FBD8520728BF30C148BFAA
:1001E0000B607047642901F05D87002070471FB5E0
:1001F0001FBD10B510BD02F030F81146FFF7F7FF34
:1002000000F03FF802F04EF803B4FFF7F2FF03BC32
:1002100000F09CFA08B50121082000F0D9FE4FF447
:100220004440ADF8000010208DF8030003208DF845
:1002300002006946814800F00FFC4FF480417F487E
:1002400000F0B7FC4FF400417C4800F0B2FC4FF4E2
:1002500080617A4800F0ADFC08BD08B50121082096
:1002600000F0B6FE4FF46050ADF8000028208DF885
:10027000030003208DF802006946704800F0ECFB93
:1002800008BD9CB000261E241E2500201B901A903D
:10029000642101A801F040FF00F0EEF901F0EBFA53
:1002A00001F0C7F9FFF7D9FFFFF7B4FFC5E01AA9BE
:1002B0001BA801F092F99DF86C2061A101A801F042
:1002C000A9FE01AA0121022001F0E8FB9DF86820A7
:1002D0005EA101A801F09EFE01AA0321022001F007
:1002E000DDFB5D480068012808D100BF5A4800685E
:1002F0000028FBD1761C012E00DD00265648001D8B
:10030000006801280CD15EB900BF5348001D006889
:100310000028FAD1641C642C02DD642401F0ABFADD
:100320004D480830006801280CD15EB900BF4A482A
:10033000083000680028FAD1641E012C02DA01247A
:1003400001F099FA4448001D006801280DD1012EE2
:100350000BD100BF4048001D00680028FAD16D1C79
:10036000642D02DD642501F086FA3B480830006800
:1003700001280DD1012E0BD100BF3748083000688D
:100380000028FAD16D1E012D02DA012501F073FA61
:10039000224632A101A801F03DFE01AA0121502010
:1003A00001F07CFB2A462DA101A801F033FE01AA31
:1003B0000321502001F072FB9DF86C00A04203DC89
:1003C0009DF86800A84204DA0020234990310860B3
:1003D00003E001202049903108609DF86C00A042A4
:1003E00004DD00201C498C31086003E001201A491B
:1003F0008C3108609DF86800A84204DA0020164994
:100400007C31086003E0012013497C31086056B953
:10041000012214A101A801F0FDFD01AA06211E2060
:1004200001F03CFB09E0012211A101A801F0F2FD5D
:1004300001AA06211E2001F031FB38E7000C014023
:1004400074656D703A2564204320200068756D3A0C
:1004500025642020200000002C8121425345543A7D
:10046000256400005345543A54454D50256400001E
:100470005345543A48554D2564200000704700BF4D
:10048000FEE700BFFEE700BFFEE700BFFEE77047E4
:1004900070477047704700000CB500200190009035
:1004A0006C48006840F480306A49086000BF6948C1
:1004B000006800F4003000900198401C0190009802
:1004C00018B90198B0F5A06FF1D16248006800F446
:1004D000003010B10120009001E000200090009851
:1004E000012843D15C48006840F010005A49086078
:1004F0000846006820F0030008600846006840F0E5
:100500000200086053484068524948600846406805
:1005100048600846406840F480604860084640688B
:1005200020F47C1048600846406840F4E8104860B9
:100530000846006840F08070086000BF45480068C9
:1005400000F000700028F9D04248406820F0030015
:10055000404948600846406840F00200486000BFDB
:100560003C48406800F00C000828F9D10CBD10B5DB
:10057000FFF792FF10BD10B53648006840F001004B
:1005800034490860084640683449084031494860A9
:1005900008460068324908402E490860084600684D
:1005A00020F4802008600846406820F4FE0048607F
:1005B0004FF41F008860FFF7DAFF4FF00060294911
:1005C000086010BD10B5002100200022214B5B689F
:1005D00003F00C0121B1042906D0082928D107E035
:1005E000214B224C236027E01F4B204C236023E04B
:1005F000184B5B6803F47010164B5B6803F4803291
:10060000022303EB904022B9194B4343174C23605C
:100610000DE0104B5B6803F4003323B1144B4343EC
:10062000124C236003E0104B4343104C236003E063
:100630000D4B0E4C236000BF00BF064B5B68C3F33D
:1006400003130C4CE15C094B1B68CB40074C236047
:1006500010BD000000100240002002400000FFF822
:10066000FFFFF6FE08ED00E000127A000000002017
:1006700000093D000400002010B56FF0040000F0F8
:100680006CF92E4800682E49B0FBF1F02D49087036
:100690000846007800EB4001C1EBC0104FF6FF7137
:1006A00001EAC0002849088010BD0146254A127899
:1006B0004A434FF0E0235A6100229A611A461269B8
:1006C00042F001021A6100BF4FF0E022106900F011
:1006D00001021AB100F48032002AF5D04FF0E02276
:1006E000126922F001024FF0E0231A6100229A61A0
:1006F00070470146144A12884A434FF0E0235A617A
:1007000000229A611A46126942F001021A6100BF82
:100710004FF0E022106900F001021AB100F48032BB
:10072000002AF5D04FF0E022126922F001024FF0CA
:10073000E0231A6100229A61704700000000002047
:1007400000127A001400002016000020014600BFAD
:10075000704710B586B00446012144F2040000F051
:1007600037FC424800F098FC4FF40070ADF81400DC
:1007700003208DF8160018208DF8170005A93C48B5
:1007800000F06AF94FF48060ADF8140004208DF891
:10079000170005A9364800F05FF925208DF8000004
:1007A00003208DF801008DF8020001208DF8030070
:1007B000684600F088F801940020ADF80800ADF814
:1007C0000A00ADF80C00ADF810000C20ADF80E00DA
:1007D00001A9264800F0A3FC012240F2255123483C
:1007E00000F035FD0121214800F025FD06B010BDC7
:1007F00010B540F225511D4800F00EFE10B31B4805
:1008000000F08AFDC4B21B48008800F40040C8B95B
:100810001848008800F4804060B10A2C03D0002002
:100820001449088020E01348008840F40040114932
:10083000088019E00D2C06D10E48008840F4804055
:100840000C49088010E00B480088C0F30D000A49ED
:100850000C5408480088401C064908800846008857
:10086000C72801DD0020088010BD000000380140CD
:10087000000801401C000020340300200948804784
:1008800009480047FEE7FEE7FEE7FEE7FEE7FEE772
:10089000FEE7FEE7FEE7FEE704480549054A064B8A
:1008A000704700007705000831010008600400204F
:1008B000600A0020600600206006002031490143E4
:1008C000314A1160704770B5002100230F22C478AF
:1008D00004B32D4C246804F4E064C4F5E064210AF8
:1008E000C1F10403CA40447804FA03F18478144047
:1008F00021430901254C0678A155047804F01F0511
:100900000124AC4005786D11AD0005F1E025C5F876
:10091000004109E0047804F01F050124AC401C4D9F
:100920000678761145F8264070BD1A4A0A400243FF
:10093000154B1B1F1A60704739B1134A121D1268FC
:100940000243114B1B1D1A6006E00F4A121D12686C
:1009500082430D4B1B1D1A607047042808D14FF0CD
:10096000E021096941F004014FF0E022116107E044
:100970004FF0E021096921F004014FF0E0221161FC
:10098000704700000000FA050CED00E000E400E014
:1009900080E100E080FFFF1F10B50446CC48844290
:1009A00008D10121042000F02DFB0021042000F0DB
:1009B00029FB46E0C748844208D10121082000F005
:1009C00021FB0021082000F01DFB3AE0C2488442D0
:1009D00008D10121102000F015FB0021102000F0AB
:1009E00011FB2EE0BD48844208D10121202000F0F7
:1009F00009FB0021202000F005FB22E0B8488442DA
:100A000008D10121402000F0FDFA0021402000F033
:100A1000F9FA16E0B348844208D10121802000F0A1
:100A2000F1FA0021802000F0EDFA0AE0AE4884429D
:100A300007D10121801500F0E5FA0021A01500F092
:100A4000E1FA10BD10B50121084600F0DBFA0021E3
:100A5000012000F0D7FA10BD2DE9F0410246002533
:100A60000026002000230024002791F803C00CF08A
:100A70000F0591F803C00CF0100CBCF1000F03D06F
:100A800091F802C04CEA050591F800C0BCF1000FD6
:100A900031D0146800202BE04FF0010C0CFA00F369
:100AA000B1F800C00CEA03069E4220D183004FF04B
:100AB0000F0C0CFA03F7BC4305FA03FC4CEA0404E0
:100AC00091F803C0BCF1280F06D14FF0010C0CFACD
:100AD00000FCC2F814C00AE091F803C0BCF1480F52
:100AE00005D14FF0010C0CFA00FCC2F810C0401CFC
:100AF0000828D1D31460B1F800C0BCF1FF0F34DD79
:100B0000546800202EE000F1080C4FF0010808FAAC
:100B10000CF3B1F800C00CEA03069E4221D1830019
:100B20004FF00F0C0CFA03F7BC4305FA03FC4CEA38
:100B3000040491F803C0BCF1280F05D100F1080CA2
:100B400008FA0CF8C2F8148091F803C0BCF1480F01
:100B500007D100F1080C4FF0010808FA0CF8C2F8B0
:100B60001080401C0828CED35460BDE8F0814FF6B9
:100B7000FF710180022181700421C170704702461B
:100B8000002093680B400BB1012000E0002070476B
:100B90000146886880B2704702460020D3680B4047
:100BA0000BB1012000E0002070470146C86880B208
:100BB000704701617047416170470AB1016100E00F
:100BC00041617047C16070474FF480320A438261CF
:100BD0008161826182698269704702460020434BCD
:100BE00018684FF68073184040EA021008433F4BE4
:100BF000186070473E49C8617047F0B50A46002347
:100C000000240021002500F00046B6F1004F02D17B
:100C1000364EF16901E0354E7168C0F3034583B289
:100C200000F44016B6F5401F08D121F070612F4E38
:100C3000766826F070662D4F7E6012E000F4801614
:100C4000B6F5801F06D1032606FA05F4A14341F04C
:100C5000706106E0460D360103FA06F6B14341F035
:100C6000706122B1460D360103FA06F6314300F0F9
:100C70000046B6F1004F02D11C4EF16101E01B4E5F
:100C80007160F0BD30B500228B071C0F0F2303FAF3
:100C900004F2164B08338C1053F824309343134C52
:100CA00008348D1044F8253023468C1053F8243036
:100CB0008C07240F00FA04F423430C4C08348D10E5
:100CC00044F8253030BD0A49DC3108607047000027
:100CD00000080140000C01400010014000140140D8
:100CE00000180140001C01400020014000000140AC
:100CF00000002042DF48006840F00100DD49086044
:100D000008464068DC490840DA49486008460068FF
:100D1000DA490840D74908600846006820F4802076
:100D200008600846406820F4FE0048604FF41F0049
:100D300088607047CF49096821F48031CD4A11603D
:100D40001146096821F480211160B0F5803F03D07D
:100D5000B0F5802F0ED106E0C649096841F4803114
:100D6000C44A116007E0C349096841F4A021C14A9F
:100D7000116000E000BF00BF704710B501460022BF
:100D8000002300204A11012A02D1BA4C236806E050
:100D9000022A02D1B74C236A01E0B64C636A01F023
:100DA0001F02012494401C400CB1012000E00020EF
:100DB00010BD38B5002000900024002500BF312070
:100DC000FFF7DBFF05460098401C00900098B0F547
:100DD000A06F01D0002DF2D03120FFF7CEFF08B177
:100DE000012400E00024204638BD01460020A14A2D
:100DF000106820F0F80040EAC10010607047A04978
:100E000008607047024600209A4B586820F47C1016
:100E100042EA01031843974B5860704798490866A7
:100E2000704701460020934A506820F003000843B1
:100E3000506070478F48406800F00C0070470146D2
:100E400000208C4A506820F0F00008435060704742
:100E500001460020874A506820F4E0600843506053
:100E6000704701460020834A506820F4605040EAF1
:100E7000C1005060704729B17E4A527A02437D4BCF
:100E80005A7204E07B4A527A82437A4B5A72704714
:100E90007B49D8310860704701460020754A506888
:100EA00020F440400843506070470021714A2032CE
:100EB0001170704A82F82010012802D004280AD14B
:100EC00004E001216B4A2032117005E00521694AD6
:100ED0002032117000E000BF00BF70476949086010
:100EE00070476449096A0143624A11627047654963
:100EF00044390860704730B50021002200240023E7
:100F00005C4D6D6805F00C0121B1042905D008295C
:100F100023D105E05C4D056022E05B4D05601FE0DC
:100F2000544D6D6805F47012524D6D6805F48034AF
:100F3000022505EB92421CB9544D554305600BE068
:100F40004C4D6D6805F400351DB1504D554305609D
:100F500002E04D4D5543056002E04B4D056000BF7A
:100F600000BF444D6D6805F0F0010909484D6B5C08
:100F70000568DD4045603F4D6D6805F4E061090A94
:100F8000434D6B5C4568DD4085603A4D6D6805F406
:100F90006051C90A3E4D6B5C4568DD40C560354D0A
:100FA0006D6805F44041890B3A4D6B5CC568B5FB33
:100FB000F3F5056130BD29B12E4A526902432D4B2C
:100FC0005A6104E02B4A526982432A4B5A617047A6
:100FD00029B1284A92690243264B9A6104E0254AC6
:100FE00092698243234B9A61704729B1214AD269A1
:100FF0000243204BDA6104E01E4AD26982431D4B52
:10100000DA61704729B11B4AD2680243194BDA6092
:1010100004E0184AD2688243164BDA60704729B15F
:10102000144A12690243134B1A6104E0114A12690F
:101030008243104B1A61704712494039086070476B
:101040000F49C86470470B49C87170470948406A26
:1010500040F0807007494862704701460020054A09
:1010600092680A400AB1012000E00020704701495F
:1010700088727047001002400000FFF8FFFFF6FE84
:10108000000042428004424200127A0000093D0002
:101090001E0000202E00002010B50446FB488442AC
:1010A00009D101218803FFF7ADFF00214FF48040F3
:1010B000FFF7A8FF32E0F648844209D10121480435
:1010C000FFF7ADFF00214FF40030FFF7A8FF25E048
:1010D000F048844209D101218804FFF7A0FF0021D4
:1010E0004FF48020FFF79BFF18E0EB48844209D1C2
:1010F0000121C804FFF793FF00214FF40020FFF700
:101100008EFF0BE0E548844208D101210805FFF776
:1011100086FF00214FF48010FFF781FF10BD2DE9FD
:10112000F04786B005460E460024A24600BFA14601
:101130000027B08900B100BF2F462C8A4CF6FF7003
:101140000440F08804432C82AC894EF6F31004402E
:10115000B08831890843718908430443AC81AC8A63
:101160004FF6FF400440B0890443AC8201A8FFF76A
:10117000C2FEC648874202D1DDF810A001E0DDF8CA
:101180000CA0A88900F4004040B10AEBCA0000EBB3
:101190000A1031684900B0FBF1F807E00AEBCA0019
:1011A00000EB0A1031688900B0FBF1F86420B8FB4D
:1011B000F0F004012009642101FB1089A88900F4E2
:1011C000004040B1322000EBC900B0FBF1F000F06C
:1011D0000700044308E0322000EB09106421B0FB53
:1011E000F1F000F00F0004432C8106B0BDE8F08759
:1011F0004FF41651016000218180C18001810C21D2
:10120000418100218181704710B502460020108A7B
:101210004FF2FF0318400B884C8823438C882343EC
:10122000CC8823431843108210BD002101804180E7
:101230008180C180704721B1828942F4005282814D
:1012400004E082894DF6FF731A4082817047F0B541
:101250000346002400260025002040F66A17B94204
:1012600000D100BF1846C1F3421401F01F06012748
:1012700007FA06F5012C01D10C3004E0022C01D153
:10128000103000E014301AB107682F43076002E005
:101290000768AF430760F0BD1AB1838A0B438382AE
:1012A00002E0838A8B4383827047028A4FF6F07391
:1012B0001A400282028A0A430282704782894FF2F0
:1012C000FF731A40828182890A438281704721B16B
:1012D000828942F00202828104E082894FF6FD7326
:1012E0001A4082817047028A4FF6DF731A400282E9
:1012F000028A0A430282704721B1028A42F4804284
:10130000028204E0028A4BF6FF731A4002827047A1
:10131000C1F308028280704701468888C0F3080044
:101320007047818941F0010181817047028BD2B2FF
:101330000283028B42EA012202837047028B02F48D
:101340007F420283028B0A430283704721B1828A63
:1013500042F02002828204E0828A4FF6DF731A4054
:101360008282704721B1828A42F01002828204E0B8
:10137000828A4FF6EF731A408282704721B1828AC7
:1013800042F00802828204E0828A4FF6F7731A4024
:101390008282704721B1828942F40042828103E057
:1013A0008289C2F30E028281704721B1828A42F49F
:1013B0000062828204E0828A4FF2FF731A408282C6
:1013C0007047828A4FF6FB731A408282828A0A43F0
:1013D0008282704721B1828A42F00202828204E056
:1013E000828A4FF6FD731A408282704702460020BF
:1013F000B1F5007F00D100BF13880B400BB1012075
:1014000000E00020704701F40072B2F5007F00D1C7
:1014100000BFCA430280704770B502460024002313
:101420000025002040F66A16B14200D100BFC1F38A
:10143000421501F01F03012606FA03F3012D02D124
:101440009689334006E0022D02D1168A334001E02E
:10145000968A33400C12012606FA04F416883440AA
:1014600013B10CB1012000E0002070BD10B50022C6
:10147000002340F66A14A14200D100BF0A120124E1
:101480009440A3B2DC43048010BD0000003801404A
:101490000044004000480040004C00400050004024
:1014A00000BF0100A0F10100FBD1704708B54FF467
:1014B0000040ADF8000004208DF803006946904814
:1014C000FFF7CAFA08BD08B54FF40040ADF80000B8
:1014D00003208DF8020010208DF80300694688482B
:1014E000FFF7BAFA08BD10B5FFF7EDFF4FF4004162
:1014F0008348FFF75EFB4FF400418148FFF75BFB39
:1015000046F2A810FFF7CCFF4FF400417C48FFF7EC
:1015100050FB3720FFF7C4FF10BD10B50024FFF7C4
:10152000C5FF4FF400417648FFF729FB012801D1A0
:10153000002010BD01E0601CC4B24FF400417048AF
:10154000FFF71DFB08B9642CF5DB2820FFF7A8FF87
:101550002820FFF7A5FF0120EBE710B5002404E0E9
:10156000601CC4B20220FFF79BFF4FF400416448A7
:10157000FFF705FB012801D1322CF1DB2D2C01DD19
:10158000FF2010BD002404E0601CC4B20220FFF75D
:1015900087FF4FF400415A48FFF7F1FA08B9322C9F
:1015A000F2DB2820FFF77CFF4FF400415448FFF79F
:1015B000E6FA012800D1E4E70020E2E770B5002454
:1015C000002506E06006040EFFF7C7FF0443681C11
:1015D000C5B2082DF6DB204670BD7CB505460E462B
:1015E000FFF781FFFFF799FFF8B9002405E0FFF747
:1015F000E5FF0DF80400601CC4B2052CF7DB9DF874
:1016000000009DF8011008449DF8021008449DF860
:10161000031008449DF80410884208D19DF800008A
:1016200030709DF80200287001E001207CBD002090
:10163000FCE710B501211020FFF7CAFCFFF753FFAC
:10164000FFF76BFF10BD2DE9F05F04460027B94698
:10165000BA4601264FF0000BFFF728FF4FF00008B5
:1016600035E080262AE003E009F1010000F0FF09DF
:101670004FF400412248FFF782FA10B9B9F1320F56
:10168000F2DB1E20FFF70CFF4FF400411C48FFF770
:1016900076FA012801D1374300E0B74303E00AF1AD
:1016A000010000F0FF0A4FF400411548FFF767FA08
:1016B000012802D1BAF1320FF1DB7610002ED2D11F
:1016C00004F80870002708F1010000F0FF08B8F1E5
:1016D000050FC6DB002505E0605D584400F0FF0BF8
:1016E000681CC5B2042DF7DB0BF0FF00834621799F
:1016F000884202D10120BDE8F09F0020FBE70000F6
:101700000010014070B50446082501224021FB4825
:10171000FFF753FA0022A901F848FFF74EFA1BE041
:1017200004F0800028B101221102F448FFF745FAC5
:1017300005E000224FF48071F048FFF73EFA0122E5
:101740005102EE48FFF739FA00224FF40071EB48DE
:10175000FFF733FA6006040E2800A5F10101CDB2AF
:10176000DED170BD70B50446082500224021E34853
:10177000FFF723FA0022A901E048FFF71EFA1BE059
:1017800004F0800028B101221102DC48FFF715FAAD
:1017900005E000224FF48071D848FFF70EFA0122CD
:1017A0005102D648FFF709FA00224FF40071D348DE
:1017B000FFF703FA6006040E2800A5F10101CDB27F
:1017C000DED170BD70B504460D4605F1B001C8B25A
:1017D000FFF7C8FF102141EA1410FFF7C3FF04F020
:1017E0000F0141F00100FFF7BDFF70BD70B5064667
:1017F000002415E004F1B001C8B2FFF7B3FF0120E7
:10180000FFF7B0FF1020FFF7ADFF002504E03046E2
:10181000FFF778FF681CC5B2822DF8DB601CC4B2EC
:10182000082CE7DB70BD70B5002415E004F1B001B1
:10183000C8B2FFF797FF0120FFF794FF1020FFF7D2
:1018400091FF002504E00020FFF75CFF681CC5B293
:10185000822DF8DB601CC4B2082CE7DB70BD07E00A
:1018600040F2375100BF0A00A1F10101FBD1401E37
:101870000028F5D1704708B501210820FFF7A8FB23
:101880004020ADF8000003208DF8020010208DF8F4
:10189000030069469948FFF7DFF88020ADF80000A3
:1018A00069469648FFF7D8F84FF48070ADF800000D
:1018B00069469248FFF7D0F84FF40070ADF8000089
:1018C00069468E48FFF7C8F8002240218B48FFF791
:1018D00074F9002280218948FFF76FF900224FF444
:1018E00080718648FFF769F900224FF40071834840
:1018F000FFF763F9012251028048FFF75EF90022E9
:1019000080217E48FFF759F93220FFF7A8FF012216
:1019100080217A48FFF751F9AE20FFF723FF00201E
:10192000FFF720FF1020FFF71DFF4020FFF71AFFF1
:101930008120FFF717FFCF20FFF714FFA120FFF74B
:1019400011FFC820FFF70EFFA620FFF70BFFA8200E
:10195000FFF708FF3F20FFF705FFD320FFF702FF47
:101960000020FFF7FFFED520FFF7FCFE8020FFF7E9
:10197000F9FED920FFF7F6FEF120FFF7F3FEDA209B
:10198000FFF7F0FE1220FFF7EDFEDB20FFF7EAFE87
:101990004020FFF7E7FE2020FFF7E4FE0220FFF7DC
:1019A000E1FE8D20FFF7DEFE1420FFF7DBFEA42012
:1019B000FFF7D8FEA620FFF7D5FEAF20FFF7D2FE37
:1019C0000020FFF713FF00210846FFF7FBFE08BDCC
:1019D00070B505460C46E1102846FFF7F3FE204699
:1019E000E11704EB5171C910A4EBC1020121914030
:1019F000CEB2B02101EBE401C8B2FFF7B3FE102173
:101A000041EA1510FFF7AEFE05F00F00FFF7AAFE42
:101A10003046FFF777FE70BD2DE9F04707460C46CC
:101A200090461D46DDF820A0E1103846FFF7CAFEBB
:101A30003E4613E0A146E11704EB5171C910A4EB37
:101A4000C10201219140C8B2FFF75CFEBAF1010F5B
:101A500002D13220FFF703FF701CC6B24645E9DD14
:101A6000E9103846FFF7AEFE3E4613E0A946E917F7
:101A700005EB5171C910A5EBC10201219140C8B21B
:101A8000FFF740FEBAF1010F02D10520FFF7E7FE94
:101A9000701CC6B24645E9DDBDE8F0872DE9F04788
:101AA0000446884615464FF000090026002720E02E
:101AB000E85D203800F0FF097E2C04DD002408F1E9
:101AC000010000F0FF0841462046FFF77BFE00269C
:101AD00009E009EB49010A4A02EB4101885DFFF781
:101AE00011FE701CC6B2062EF3DBA01DC4B2781C1A
:101AF000C7B2E85D0028DBD1BDE8F087000C0140EB
:101B00006A2500082DE9F04706460F469046002555
:101B10000024A14631E018F809002038C5B2782E1B
:101B200002DD0026781CC7B239463046FFF74AFE70
:101B3000002407E004EB0511FE4A505CFFF7E2FDCC
:101B4000601CC4B2082CF5DB781CC1B23046FFF72C
:101B500039FE002408E004EB05110831F54A505C19
:101B6000FFF7D0FD601CC4B2082CF4DB06F10800BE
:101B7000C6B209F1010000F0FF0918F809000028B9
:101B8000C9D1BDE8F0872DE9F04781460F46904660
:101B90000024002601256BE00024012513E0E6481F
:101BA000005D18F8061088420BD1E349601C095CFF
:101BB000701C18F80000814203D1C4EBC40045003A
:101BC00005E0A01CC4B2DC48005D7F28E7DC00BF54
:101BD000B9F1760F03DD4FF00009781CC7B2394622
:101BE0004846FFF7EFFD012D1FD039464846FFF765
:101BF000E9FD002406E0D149485DFFF783FD6D1C37
:101C0000601CC4B20E2CF6DB781CC1B24846FFF74C
:101C1000D9FD002406E0C949485DFFF773FD6D1C3E
:101C2000601CC4B20E2CF6DB1CE0701CC6B2394638
:101C30004846FFF7C7FD002404E00020FFF762FDDF
:101C4000601CC4B2102CF8DB781CC1B24846FFF708
:101C5000B9FD002404E00020FFF754FD601CC4B26D
:101C6000102CF8DB09F10E0000F0FF09B01CC6B221
:101C700018F8060000288FD1BDE8F087F8B50646B1
:101C80000F461546002427E0285D7F2814DD285DD7
:101C90008DF80000601C285C8DF8010000208DF894
:101CA00002006A4639463046FFF76DFF06F10E0026
:101CB000C6B2A01CC4B20FE0285D8DF80000002061
:101CC0008DF801006A4639463046FFF71BFF06F1E2
:101CD0000800C6B2601CC4B2285D0028D4D1F8BD8B
:101CE0002DE9F05F06460F4690461C46DDF828A019
:101CF0004FF0000BE11704EB5171C910A4EBC101C7
:101D000031B92046E11704EB5171C1F3C70506E074
:101D10002046E11704EB5171C910491CCDB23D4674
:101D200014E029463046FFF74DFDB1460AE059461A
:101D30000BF1010B1AF80100FFF7E4FC09F10100B7
:101D400000F0FF09C145F2DD681CC5B2A542E8DD1F
:101D5000BDE8F09F70B50026002411E02146102058
:101D6000FFF730FD102507E03146761C744A505CC1
:101D7000FFF7C8FC681CC5B2702DF5DB601CC4B24F
:101D8000082CEBDB70BD2DE9F0410546002700244F
:101D900010E021462220FFF715FD222606E03946F5
:101DA0007F1C685CFFF7AEFC701CC6B25E2EF6DBD3
:101DB000601CC4B2072CECDBBDE8F0812DE9FC41CE
:101DC00006460F46144600208DF805000A20B4FB95
:101DD000F0F100FB114030308DF804000A20B4FB14
:101DE000F0F00A21B0FBF1F201FB120030308DF867
:101DF00003006420B4FBF0F0B0FBF1F201FB120031
:101E000030308DF802004FF47A70B4FBF0F0B0FB84
:101E1000F1F201FB120030308DF8010042F2107037
:101E2000B4FBF0F0B0FBF1F201FB120030308DF8A2
:101E3000000000250AE01DF80500302803D120200D
:101E40000DF8050000E003E0681CC5B2042DF2DBCC
:101E500000BF6A4639463046FFF720FEBDE8FC81E8
:101E60002DE9FC4106460F46154600208DF8050079
:101E70003449284600F07CFA05460021284600F047
:101E800043FB3CD22B208DF80000284600F020FABE
:101E90000A2190FBF1F201FB12003030C0B28DF844
:101EA0000400284600F014FA0A2190FBF1F090FBA0
:101EB000F1F201FB12003030C0B28DF80300284669
:101EC00000F006FA642190FBF1F00A2190FBF1F298
:101ED00001FB12003030C0B28DF80200284600F03D
:101EE000F7F94FF47A7190FBF1F00A2190FBF1F2CF
:101EF00001FB12003030C0B28DF8010049E02D2006
:101F00008DF8000085F00045284600F0E1F90A212F
:101F100090FBF1F201FB12003030C0B28DF80400EA
:101F2000284600F0D5F90A2190FBF1F090FBF1F280
:101F30000AE00000AB2C000892270008A327000845
:101F4000320000200000204101FB12003030C0B2FE
:101F50008DF80300284600F0BBF9642190FBF1F0F6
:101F60000A2190FBF1F201FB12003030C0B28DF873
:101F70000200284600F0ACF94FF47A7190FBF1F0C2
:101F80000A2190FBF1F201FB12003030C0B28DF853
:101F9000010000240AE01DF80400302803D12020AD
:101FA0000DF8040000E003E0601CC4B2042CF2DB76
:101FB00000BF6A4639463046FFF770FDBDE8FC8138
:101FC00010B5044606212046FFF7FCFBB620FFF7BC
:101FD000C9FB102141EA1410FFF7C4FB04F00F0005
:101FE000FFF7C0FB0020FFF78DFB07212046FFF71E
:101FF000E9FBB720FFF7B6FB102141EA1410FFF709
:10200000B1FB04F00F00FFF7ADFB0020FFF77AFBF8
:1020100010BD70470FB41CB5074B06AA7B44694638
:102020000090059800F001F90020694600F010F9D1
:102030001CBC5DF814FB0000310200002DE9F041EA
:102040000E460446002020622046E168884730B3EF
:10205000252805D0D4E901219047206A401CF2E7E9
:10206000E168204600278847050018D0A5F1410007
:10207000192802D820354FF40067324629462046F9
:102080002760FEF7AFF840B1012804D0F61D26F016
:1020900007060836D8E7361DD6E72846DAE7206A6D
:1020A000BDE8F0812DE9F04106460024106875294D
:1020B000314615A510D0AFF30080002802DA404267
:1020C00012A507E031688A0701D511A502E049078A
:1020D00004D510A5012401E0AFF3008000210A23FC
:1020E00006F1240707E0B0FBF3F203FB12003030E7
:1020F00078541046491C0028F5D123462A4630461C
:10210000BDE8F04100F033B8000000002D000000F1
:102110002B000000200000004FF0000200B5134625
:1021200094469646203922BFA0E80C50A0E80C50F7
:10213000B1F12001BFF4F7AF090728BFA0E80C50A8
:1021400048BF0CC05DF804EB890028BF40F8042BA1
:1021500008BF704748BF20F8022B11F0804F18BF0E
:1021600000F8012B704770477047704770472DE9A2
:10217000F0470D4699469246044600F1240801684E
:10218000880604D5E06921F01001216000E00120FB
:10219000A84201DD471B00E00027A1697A1902EB84
:1021A0000900081AA0612078C00602D42046AFF3C7
:1021B0000080002608E0D4E901211AF806009047C3
:1021C000206A401C761C20624E45F4DB2078C00655
:1021D0000AD52046AFF3008006E0D4E90121302083
:1021E0009047206A401C2062381EA7F10107F4DCEA
:1021F00007E0D4E9012118F805009047206A401C47
:102200002062281EA5F10105F3DC2046AFF3008013
:102210002078000602D50220BDE8F0870120FBE708
:1022200001694A1C02610878704700B58FB0CDE99A
:1022300001310021059105497944CDE9031011468A
:102240006846FFF7FBFE0FB000BD0000E5FFFFFF93
:102250000A6802F8010B0A607047754600F028F81A
:10226000AE4605006946534620F00700854618B083
:1022700020B5FEF711FBBDE820404FF000064FF0FF
:1022800000074FF000084FF0000B21F00701AC46AB
:10229000ACE8C009ACE8C009ACE8C009ACE8C009CA
:1022A0008D4670470446AFF300802046FDF7ACFF33
:1022B00000487047FC030020401058BFC0F1404068
:1022C000491058BFC1F140418142EFF3008070478F
:1022D00041000B0ED3F19E0208D950F400034FEADF
:1022E000032323FA02F048BF4042704710B500F0C4
:1022F000C0F800BF49922480002070476FF0004270
:1023000082EA20007047000050EA010C00F11380BF
:102310001CF5000F58BFBCF5000F01D48842704770
:1023200007D710F5000F58BF11F5000F15D48842DC
:102330007047894270471CF5000F04D5BCF5000FAB
:10234000F7D5814270474FF0807C1CEB400F38BFBF
:102350001CEB410F01D28142704710B500F089F8A3
:10236000922449004FF000504FF08051FFF7A4BF76
:102370004FF47F0C1CEAD0121EBF1CEAD11392EA64
:102380000C0F93EA0C0F00F0478090EA010F48BF52
:1023900042F480724FF0004C4CEA00204CEA0121DC
:1023A00002EB0302A0FB0113A2F50002002918BFF3
:1023B00043F001035B0028BF4FEA330342EB2242A4
:1023C0005FEA132C4CEBC2502EBFBCEB436FB2F54F
:1023D0007C0F70474FEA036CBCF1004F08BF20F040
:1023E0000100B2F57C0F38BF70470BD582F0FF02B9
:1023F00012F5803FC8BF704700F1C040D8BF00F061
:102400000040704700F5000C5FEA4C0C48BF704775
:10241000B0F1C04000F073B890EA010F0CEAD1139C
:1024200048BF42F48072624538BF634504D280EAF7
:10243000010000F00040704710B500F01AF800BF2E
:102440008900013E00F007B800F009B85FEA410CCE
:102450005FEA1C6C08D080EA010000F050B85FEA27
:10246000400C5FEA1C6CF6D14FF00040A0F58000F4
:1024700070470EF1020E2EF0030E5EF8044B24425C
:1024800004D44FEA4102B2F17F4F11D84FEA400322
:10249000B3F17F4F0CD80ED14FEAD07CB2F17F4F11
:1024A0000CEB4C0C0CF1020C08BF4CEBD17C04E0A3
:1024B0004FF0080C01E04FEAD17C0CEB4C0324FAFE
:1024C00003F404F00704B4F1040C06D20EEB840C00
:1024D000BDE810404CF0010C6047DFE80CF0070845
:1024E00002024FF00040A0F5800010BD08464200F7
:1024F00018BFD2F1807288BF00F0004010BDFF21EC
:1025000041EAD050C005704751EA000C00F1138039
:102510001CF5000F58BFBCF5000F01D48142704775
:1025200007D711F5000F58BF10F5000F15D48142E1
:102530007047894270471CF5000F04D5BCF5000FA9
:10254000F7D5884270474FF0807C1CEB410F38BFB5
:102550001CEB400F01D28842704780EA010081EAFB
:10256000000180EA0100FFF7F8BE00000000000053
:102570000000002F000000000700070000147F1477
:102580007F1400242A7F2A12006264081323003675
:102590004955225000000503000000001C224100A4
:1025A000000041221C000014083E08140008083EE8
:1025B0000808000000A060000008080808080000E3
:1025C00060600000002010080402003E5149453EB2
:1025D0000000427F400000426151494600214145D0
:1025E0004B31001814127F10002745454539003C37
:1025F0004A49493000017109050300364949493605
:1026000000064949291E00003636000000005636F3
:1026100000000008142241000014141414140000D7
:102620004122140800020151090600324959513E65
:10263000007C1211127C007F49494936003E41411D
:102640004122007F4141221C007F49494941007FCE
:1026500009090901003E4149497A007F0808087FBD
:102660000000417F4100002040413F01007F0814ED
:102670002241007F40404040007F020C027F007FEB
:102680000408107F003E4141413E007F09090906D0
:10269000003E4151215E007F091929460046494903
:1026A00049310001017F0101003F4040403F001FD0
:1026B0002040201F003F4038403F0063140814634F
:1026C00000070870080700615149454300007F4139
:1026D000410000552A552A55000041417F00000461
:1026E000020102040040404040400000010204009A
:1026F000002054545478007F4844443800384444FF
:10270000442000384444487F00385454541800088A
:102710007E0901020018A4A4A47C007F08040478A8
:102720000000447D4000004080847D00007F102830
:1027300044000000417F4000007C04180478007CC5
:102740000804047800384444443800FC2424241845
:102750000018242418FC007C080404080048545481
:10276000542000043F444020003C4040207C001C9A
:102770002040201C003C4030403C004428102844AD
:10278000001CA0A0A07C004464544C4414141414F5
:102790001414D6D0CEC4BABAD7D6B2E2CAD4B3CC07
:1027A000D0F20020202020FF000000FF4020301841
:1027B00010301808047F0000003F4040404078047B
:1027C00004E424242526242424E4060400201019EB
:1027D0000D41817F0101050D3810001010101010FF
:1027E000FF10F0121CD01010104020100C03100825
:1027F0003F4241404040700000FE848484848282D5
:102800008282C0800020203F20202020203F2020E6
:1028100020302000FC2424E2222200FE0222528EDC
:1028200002101F10080F080800FF000808100F1200
:102830009272FE51910022CC0000FF0000020100C4
:10284000FF00040404020202FF01010888FF482877
:1028500000C848487F48C8480841807F0040402061
:10286000130C0C1221602042424242FE424242427C
:10287000FE424242424020100C03000000007F0054
:10288000000000103E1010F09F909092941C1010C9
:10289000102010888741462810282740C04000108B
:1028A000D0FF509000FE62A22221A1610003007FB0
:1028B00000110E4120110A0E3160201413927E3255
:1028C0005292007C4444447C00010100FF49494984
:1028D000494949FF000000B897929094B810007FD2
:1028E0004848447420FF0A0A4A8A7F00003F444453
:1028F0004272200484C4A49C8784F48484848484E5
:102900000004040404040404FF0404040404040490
:1029100004E42526342C242426E504040400007F46
:10292000252525252525257F0000004042CC005087
:102930004EC8487FC84848400040201F20484641B4
:1029400040404748484E406106E01884E41C8465D6
:10295000BE24A4640404FF000100FF4121120C1BEB
:1029600061C0400000007E2A2A2A2A2A2A7E00000E
:10297000007F252525257F00007F252525257F1023
:102980002C24A46425262424A424342C044048495F
:102990004949497F4949494B484040218670007E5A
:1029A0004A4A4A4A4A7E000000FE01407F41417F78
:1029B00041417F41417F4000FC042424FCA5A6A4A2
:1029C000FC24242404601F808042462A12122A26F6
:1029D00042C0401010FF9050988888E98E888898EF
:1029E0008842817F0040402625180816316020303B
:1029F000EF28284464DC1054FF54547C10017F21DC
:102A00005122140F14253F45454544021CC0304C4B
:102A1000300F08F808082818085E43202010080422
:102A20000301060830602000F848484848FF48483D
:102A30004848F80000000F040404043F44444444A0
:102A40004F407000FE0242424242FA42424262421B
:102A500002182720202020203F20212E2420200083
:102A60000000C0C0000000000000000000000000E6
:102A70000C0C000000000000000000102284000088
:102A80007F494949497F000000180601203F213F46
:102A900021213F213F20000000FC14147C55565496
:102AA000547C14140020180720211315090915134C
:102AB000212000060909F608040404040404083C63
:102AC000000000000708101010101010080400107B
:102AD000228400FE929292929292FE0000180601C9
:102AE0002224283F20203F282422000808FF8800B5
:102AF0004C2415060414244C0021213F0000202101
:102B0000213F212121200028262424FF24242400E1
:102B1000FC00FF0000001F01013F01111F002320E6
:102B20003F0000080808FF0808F800F8080808F83F
:102B3000002018070020201F001F0808081F0000A1
:102B40002424FF140024C4BF04FC00C000201A0287
:102B50000308320108310000093300404F4949C9D8
:102B60004F604FC959694F4000023E2525243C0063
:102B70003C2425253E02000808FF884800FE42C28A
:102B80005252DE000021213F0000003F100B040ADA
:102B9000112000908ABFAABACFFA84AA9392AEA25B
:102BA0000000003A2A2A2A2A2A2A2A3A000000404B
:102BB0004040404040404040404040400000000015
:102BC00000000000000000000000000012121212BD
:102BD00012FE121111111100000101010121213F0A
:102BE0000101010101010000FC24242625242424E4
:102BF0002424FC0000003F111111111111111111B9
:102C00003F00002022E22222200808FF080808F8DE
:102C10000004070404052E100C030020201F0000F0
:102C2000FF111111111111111111FF0000003F11BD
:102C300011111111111111113F000008C8FF48A80E
:102C400022A222E222A222200001003F0008062147
:102C5000203F0000030C0040C05F5555D555555529
:102C6000555F404000101F15150D3F08231509152D
:102C70002320004020F80700FC444444FE42424028
:102C80000000003F00001F080410230C103800044F
:102C900004047454555654547404040400003F0151
:102CA000011D1515151D01213F0000000000000049
:102CB0000000000000000000000000000000F8001C
:102CC000000000000000333000000000100C06106F
:102CD0000C0600000000000000000040C07840C06A
:102CE000784000043F04043F040400007088FC089E
:102CF000300000001820FF211E0000F008F000E066
:102D000018000000211C031E211E0000F00888701E
:102D10000000001E2123241927211010160E000088
:102D20000000000000000000000000000000E018AB
:102D3000040200000000071820400000020418E010
:102D40000000000040201807000000404080F08094
:102D50004040000202010F01020200000000F000EA
:102D60000000000101011F0101010000000000003E
:102D700000000080B07000000000000000000000B3
:102D8000000000000101010101010100000000003C
:102D90000000000030300000000000000000008053
:102DA000601804006018060100000000E010080828
:102DB00010E000000F102020100F00001010F8008D
:102DC0000000000020203F202000000070080808BC
:102DD00088700000302824222130000030088888C4
:102DE0004830000018202020110E000000C02010E4
:102DF000F8000000070424243F240000F808888815
:102E00000808000019212020110E0000E010888819
:102E1000180000000F112020110E0000380808C80B
:102E20003808000000003F0000000000708808081B
:102E3000887000001C222121221C0000E0100808DC
:102E400010E0000000312222110F00000000C0C07D
:102E50000000000000003030000000000000800092
:102E600000000000008060000000000000804020A2
:102E700010080000010204081020004040404040BB
:102E8000404000040404040404040000081020402E
:102E900080000000201008040201000070480808AB
:102EA00008F0000000003036010000C030C828E8FB
:102EB00010E0000718272423140B000000C038E09E
:102EC000000000203C23020227382008F888888868
:102ED000700000203F202020110E00C0300808089C
:102EE000083800071820202010080008F8080808F3
:102EF00010E000203F202020100F0008F88888E80C
:102F0000081000203F20202320180008F88888E8B7
:102F1000081000203F200003000000C0300808080F
:102F200038000007182020221E020008F8080000C0
:102F300008F808203F210101213F20000808F80877
:102F40000800000020203F2020000000000808F8B2
:102F5000080800C08080807F00000008F888C02832
:102F6000180800203F20012638200008F80800003B
:102F7000000000203F20202020300008F8F800F852
:102F8000F80800203F003F003F200008F830C00054
:102F900008F808203F200007183F00E01008080844
:102FA00010E0000F10202020100F0008F80808087B
:102FB00008F000203F210101010000E0100808088E
:102FC00010E0000F18242438504F0008F888888833
:102FD000887000203F2000030C3020007088080813
:102FE0000838000038202121221C00180808F808A1
:102FF0000818000000203F2000000008F80800002A
:1030000008F808001F202020201F000878880000F2
:10301000C83808000007380E010000F80800F80062
:1030200008F800033C0700073C030008186880808C
:1030300068180820302C03032C30200838C800C83A
:103040003808000000203F2000000010080808C8D1
:103050003808002038262120201800000000FE0239
:103060000202000000007F40404000000C30C00021
:10307000000000000000010638C00000020202FE4D
:10308000000000004040407F0000000000040202F9
:10309000020400000000000000000000000000002A
:1030A0000000008080808080808080000202040018
:1030B0000000000000000000000000000080808090
:1030C0008000000019242222223F2008F80080807E
:1030D000000000003F112020110E00000000808041
:1030E000800000000E1120202011000000008080D0
:1030F00088F800000E112020103F20000080808002
:10310000800000001F222222221300008080F0880D
:103110008888180020203F20200000000080808048
:10312000808000006B94949493600008F800808085
:10313000800000203F210000203F20008098980060
:103140000000000020203F202000000000008098A8
:1031500098000000C08080807F000008F800008098
:10316000808000203F24022D302000000808F80055
:103170000000000020203F20200000808080808010
:10318000808000203F20003F20003F808000808022
:10319000800000203F210000203F20000080808030
:1031A000800000001F202020201F008080008080E1
:1031B00000000080FFA12020110E00000000808090
:1031C000808000000E112020A0FF80808080008081
:1031D00080800020203F21200001000000808080AE
:1031E0008080000033242424241900008080E080A3
:1031F0008000000000001F202000008080000000F0
:10320000808000001F202020103F20808080000050
:1032100080808000010E3008060100808000800060
:103220008080800F300C030C300F00008080008005
:103230008080000020312E0E312000808080000030
:1032400080808080818E70180601000080808080E0
:103250008080000021302C222130000000000080FE
:103260007C020200000000003F404000000000FF20
:1032700000000000000000FF0000000002027C804F
:103280000000000040403F00000000000601010275
:103290000204040000000000000000000000000024
:1032A000000000000000000000000000000000001E
:1032B000000000000000000000000000000000000E
:1032C00000000000000000000000000000000000FE
:1032D00000000000000000000000000000C0E0F856
:1032E000FCFE7F3F0F0F07070787C7C7C7E7EFFF42
:1032F000FFFFEFE7E7E7E7E7EFFFFFFFEFE7E7E7CE
:10330000E7E7F7070F3F7FFFFEFCF0C0000000007B
:10331000000000000000D8DCDFDFDFDFD7010000A5
:10332000000000003E7FFFFFE3E1E1FFFFFFE0E080
:10333000E0E0E0E0E0FFFFFFE0E0E0E0C183070065
:1033400000000001D7DFDFDFDFDCD8000000000075
:10335000000001030F1F3FFFFFFEF8F0E0C08000F8
:1033600000F8F0E0C0C0C0FFFFFFC0C0C0C0C0C0D8
:10337000C0FFFFFFC0E0E1F3FF7F3F00C0E0F8FEC9
:10338000FFFFFF3F1F0701000000000000000000DA
:10339000000000000001070F3F7FFFFEFCF9F3C1B2
:1033A000810101FFFFFF01010101010101FFFFFF99
:1033B000030181C0F0FCFEFFFF7F3F0F0703000009
:1033C00000000000000000000000000000000000FD
:1033D0000000000000000003070F3F7FFFFFFFFB1E
:1033E000F3E3C3030303030383C3F3F3FBFFFFFF11
:1033F0007F3F0F03010000000000000000000000FC
:1034000000000000000000000000000000000000BC
:103410000000000000000000000307071F3F7FFFBF
:10342000FEFCFCFEFFFF7F3F0F07030000000000D3
:10343000000000000000000000000000000000008C
:10344000000000000000000000000000000000007C
:1034500000000000000000000000000003070F0F44
:103460000701000000000000000000000000000054
:103470000000000000000000000000009C34000874
:1034800000000020340300006C0100087C360008B6
:10349000340300202C070000C80100081184A24A50
:1034A00004E00901020304060708092916691A0540
:1034B0001202040608180E8080C0C0C06060603030
:1034C00030303818012A0C01AD0E0E0E06013B0EED
:1034D0000E172A1C211929000919706060E0C0C06C
:1034E0008080080F1180C0E07030381C0C06070384
:1034F00003010174493B1F8080F0F8F8F00C1808B4
:1035000080E0F0F8FC3C1C622DFCF8F0E01D980F08
:10351000C0C0C101030307060E0C183870606C3878
:103520000EC0F0781E0733313878FCFEF6C016194D
:103530008A11180CF8FCDE0E0F1EBEFCF006FF010F
:1035400018130307FFFFFE801E3FFFFFF9F9FFFF7F
:103550007F1F0E7F152FC180CECEC6C01F18093F1A
:1035600080FCFCFD7D01C07C1270195B19462E01A8
:10357000070E3CF87974FEFF03181001030F1F7F3C
:10358000FEFCF0F0F07F7F3E10030E1F1F0F0F03B5
:1035900004070112061905180D0F1E3F7F7F7F7962
:1035A000733F3F1F0E2D1A0317180E0E0F0F1F3FEC
:1035B0003D080C1F1F1F193C1D7009F3F0FCFE3F56
:1035C0001F070114CFFF70A6031F7EF0C03C03034A
:1035D000011E1CC0C040011808F87840C04058586F
:1035E0000A51399A411D60F0E02001D63030381878
:1035F000104A013E392D5DE0F83F0F555809070E7E
:103600001C383060E0C03F113815406060703018E1
:103610000C0711083F7D66E7E3C0C0C0E0607D197C
:10362000EC2A60011C7F7F610129069DE1E0E0C07A
:10363000A0111A802C1B70383C7A036A997E180EF0
:10364000030306060C0C181838303070607129011D
:1036500019B61A810469BC39C759013920196F0894
:103660000C1130303018181C0C0E06070357011EC1
:0C36700019F3290119BC99015915012416
:0400000508000131BD
:00000001FF
