:020000040800F2
:1000000060070020890D0008550500085705000805
:100010005B0500085F05000863050008000000009C
:10002000000000000000000000000000670500085C
:1000300069050008000000006B0500086D05000858
:10004000A30D0008A30D0008A30D0008A30D0008D0
:10005000A30D0008A30D0008A30D0008A30D0008C0
:10006000A30D0008A30D0008A30D0008A30D0008B0
:10007000A30D0008A30D0008A30D0008A30D0008A0
:10008000A30D0008A30D0008A30D0008A30D000890
:10009000A30D0008A30D0008A30D0008A30D000880
:1000A000A30D0008A30D0008A30D0008A30D000870
:1000B000A30D0008A30D0008A30D0008A30D000860
:1000C000A30D0008A30D0008A30D0008A30D000850
:1000D000A30D0008FD0C0008A30D0008A30D0008E7
:1000E000A30D0008A30D0008A30D0008A30D000830
:1000F000A30D0008A30D0008A30D0008A30D000820
:10010000A30D0008A30D0008A30D0008A30D00080F
:10011000A30D0008A30D0008A30D0008A30D0008FF
:10012000A30D0008A30D0008A30D0008A30D0008EF
:1001300000F002F800F03FF80AA090E8000C8244BA
:100140008344AAF10107DA4501D100F034F8AFF297
:10015000090EBAE80F0013F0010F18BFFB1A43F0A5
:1001600001031847FC2300001C240000103A24BFA0
:1001700078C878C1FAD8520724BF30C830C144BF0C
:1001800004680C607047000000230024002500264E
:10019000103A28BF78C1FBD8520728BF30C148BFEA
:1001A0000B607047642901F0D985002070471FB5A6
:1001B0001FBD10B510BD01F0ACFE1146FFF7F7FFF3
:1001C00000F07BF801F0CAFE03B4FFF7F2FF03BCB6
:1001D00000F037FD1CB50620ADF8040010208DF8A6
:1001E000070003208DF806004FF4A040ADF8000092
:1001F00010208DF8030003208DF8020001A9C148EA
:1002000000F0B0FE6946C04800F0ACFE0421BD48D5
:1002100000F055FF0221BB4800F051FF4FF4805120
:10022000B94800F04CFF1CBD08B50121082001F0C1
:1002300055F940F20340ADF8000048208DF8030066
:1002400003208DF802006946AF4800F08BFE08BD20
:1002500070B5AE48006800282DD10024142000F0AD
:10026000C0FCAA48006830BB04E0601CC4B20A208D
:1002700000F0B7FCA548006810B9B4F5FA7FF4DBCC
:10028000B4F5FA7F01DB022070BD00250FE01420D9
:1002900000F0A7FC9D48006838B90A2000F0A1FCD6
:1002A0009A48006808B90220EEE7681CC5B2322DF2
:1002B000EDDB0120E8E700BFE6E7A4B000202390D3
:1002C000229000BF00241E2514268021684601F0DC
:1002D0007FFD00F049FC00F0ECFB01F029FCFFF78A
:1002E000A3FFFFF777FF0CE122A923A801F0F4FB9D
:1002F00020A801F093FC9DF88C2085A1684601F0B0
:10030000E5FC6A460121084600F017FB9DF88C20A9
:1003100082A1684601F0DAFC6A460121032000F060
:100320000CFBFFF795FF01280ED178498831086052
:10033000641C032C00DD00240A2000F052FC002085
:1003400072498831086012E0FFF782FF02280ED15F
:1003500001206E4988310860641C032C00DD0024F4
:100360000A2000F03EFC0020684988310860674898
:1003700024380068C0B9012C16D100BF6348243866
:1003800000680028FAD16D1C01206049883108609E
:100390001E2000F026FC00206249C1F8B001642D47
:1003A00002DD642500F085FB584828380068C0B994
:1003B000012C16D100BF5548283800680028FAD112
:1003C0006D1E01205149883108600A2000F009FCA7
:1003D00000205449C1F8B001012D02DA012500F0D6
:1003E00068FB4A4824380068C0B9022C16D100BF07
:1003F0004648243800680028FAD1761C0120434979
:10040000883108600A2000F0ECFB00204549C1F863
:10041000B001642E02DD642600F04BFB3B48283817
:100420000068C0B9022C16D100BF384828380068CF
:100430000028FAD1761E01203449883108600A204C
:1004400000F0CFFB00203749C1F8B001012E02DADD
:10045000012600F02EFB2A4633A1684601F036FC47
:100460006A460121022000F068FA324630A168464F
:1004700001F02CFC6A460121042000F05EFA9DF890
:100480008C00A84203DC9DF88800B04204DA00200A
:100490001E498831086003E000201C49883108604B
:1004A0009DF88C00A84203DD00202349086002E08B
:1004B0000120214908609DF88800B04204DA00203C
:1004C0001D49091D086003E001201B49091D086042
:1004D000012C0AD1012219A1684601F0F7FB6A46F6
:1004E0000121022000F029FA0BE0022C09D101229F
:1004F00015A1684601F0EAFB6A460121042000F0DC
:100500001CFAF1E600080140000C0140288121425C
:1005100054656D703A2564430000000048756D69AC
:100520003A25640000802142547365743A256400C2
:10053000487365743A2564008401214254736574DC
:100540003A25644300000000487365743A2564202E
:1005500000000000704700BFFEE700BFFEE700BFDD
:10056000FEE700BFFEE77047704770477047000026
:100570000CB50020019000906C48006840F4803079
:100580006A49086000BF6948006800F400300090C4
:100590000198401C0190009818B90198B0F5A06F1F
:1005A000F1D16248006800F4003010B101200090E1
:1005B00001E0002000900098012843D15C480068C9
:1005C00040F010005A4908600846006820F0030017
:1005D00008600846006840F0020008605348406820
:1005E000524948600846406848600846406840F400
:1005F000806048600846406820F47C1048600846E7
:10060000406840F4E81048600846006840F0807098
:10061000086000BF4548006800F000700028F9D06D
:100620004248406820F0030040494860084640685E
:1006300040F00200486000BF3C48406800F00C00F9
:100640000828F9D10CBD10B5FFF792FF10BD10B509
:100650003648006840F001003449086008464068A8
:10066000344908403149486008460068324908402A
:100670002E4908600846006820F48020086008467B
:10068000406820F4FE0048604FF41F008860FFF7C8
:10069000DAFF4FF000602949086010BD10B5002155
:1006A00000200022214B5B6803F00C0121B10429DA
:1006B00006D0082928D107E0214B224C236027E0EF
:1006C0001F4B204C236023E0184B5B6803F4701031
:1006D000164B5B6803F48032022303EB904022B98F
:1006E000194B4343174C23600DE0104B5B6803F438
:1006F000003323B1144B4343124C236003E0104BEF
:100700004343104C236003E00D4B0E4C236000BFAD
:1007100000BF064B5B68C3F303130C4CE15C094B51
:100720001B68CB40074C236010BD00000010024046
:10073000002002400000FFF8FFFFF6FE08ED00E099
:1007400000127A000000002000093D000400002093
:1007500008B50121082000F0C1FE14208DF8030027
:1007600003208DF802004FF48070ADF80000694658
:10077000FB4800F0F7FB4FF40070ADF8000069464D
:10078000F74800F0EFFB01221102F54800F09BFC56
:1007900001225102F24800F096FC08BD10B501227A
:1007A0005102EF4800F08FFC01221102EC4800F0EA
:1007B0008AFC00224FF40071E94800F084FC00221A
:1007C0004FF48071E64800F07EFC10BD10B50022A9
:1007D0004FF40071E24800F076FC01221102E0487B
:1007E00000F071FC01225102DD4800F06CFC10BDEC
:1007F00070B50546002415E08020204100EA05027E
:100800004FF40071D64800F05EFC01221102D4487A
:1008100000F059FC00224FF48071D14800F053FCE5
:10082000601CC4B2082CE7DB01221102CC4800F0A6
:100830004AFC00224FF48071C94800F044FC70BDAE
:1008400010B50446FFF7AAFF7820FFF7D1FF00207C
:10085000FFF7CEFF2046FFF7CBFFFFF7B7FF10BD36
:1008600010B50446FFF79AFF7820FFF7C1FF40203C
:10087000FFF7BEFF2046FFF7BBFFFFF7A7FF10BD46
:1008800070B505460C4645F0B000FFF7D9FF1021C2
:1008900041EA1410FFF7D4FF04F00F00FFF7D0FF78
:1008A00070BD70B500240EE000212046FFF7E8FF80
:1008B000002504E00020FFF7D3FF681CC5B2802D9F
:1008C000F8DB601CC4B2082CEEDB70BD2DE9F041F2
:1008D00005460E461746721ED206110E6A1E5206B5
:1008E000100EFFF7CDFF002409E0A7F120019D4A7B
:1008F00002EB0111085DFFF7B3FF601CC4B2082CC6
:10090000F3DB721ED206110E6A1E012303EB4202B4
:10091000D0B2FFF7B5FF00240BE0A7F12001914A08
:1009200002EB011204F10801505CFFF799FF601C13
:10093000C4B2082CF1DBBDE8F0812DE9F041074697
:100940000E461546002407E02A5D3019C1B238462C
:10095000FFF7BCFF601CC4B2285D0028F4D1BDE8DD
:10096000F08110B50246012000E050430B00A1F1D8
:100970000101FAD110BD2DE9F04780460E46174619
:100980001D46002415E0281B411E0A20FFF7E9FF41
:10099000B7FBF0F00A21B0FBF1F201FB120000F10D
:1009A00030093019C1B24A464046FFF78FFF601C3C
:1009B000C4B2AC42E7DBBDE8F0872DE9F0478146E1
:1009C000884615461E46002D06DB2B22414648462A
:1009D000FFF77CFF2F4605E02D2241464846FFF7F2
:1009E00075FF6F42002417E0301B411E0A20FFF7FD
:1009F000B8FFB7FBF0F00A21B0FBF1F201FB1200E7
:100A000000F1300A08EB0400401CC1B252464846CF
:100A1000FFF75CFF601CC4B2B442E5DBBDE8F087C1
:100A20002DE9F04781460E4690461F4600241DE002
:100A3000381B411E1020FFF794FFB8FBF0F000F0C8
:100A40000F050A2D08DA05F13000C2B23019C1B223
:100A50004846FFF73BFF07E005F13700C2B2301907
:100A6000C1B24846FFF732FF601CC4B2BC42DFDBB4
:100A7000BDE8F0872DE9F04780460E4617461D4633
:100A8000002412E0281B411E0220FFF76AFFB7FB7B
:100A9000F0F000F0010000F130093019C1B24A460F
:100AA0004046FFF713FF601CC4B2AC42EADBBDE86E
:100AB000F08770B5002406E0002500E06D1CB5F558
:100AC0007A7FFBD3641CB4F57A7FF5D3FFF740FE41
:100AD000AE20FFF7B5FED520FFF7B2FE8020FFF76E
:100AE000AFFEA820FFF7ACFE3F20FFF7A9FED32002
:100AF000FFF7A6FE0020FFF7A3FE4020FFF7A0FEB1
:100B0000A120FFF79DFEC820FFF79AFEDA20FFF72D
:100B100097FE1220FFF794FE8120FFF791FECF2071
:100B2000FFF78EFED920FFF78BFEF120FFF788FE3E
:100B3000DB20FFF785FE3020FFF782FEA420FFF7C1
:100B40007FFEA620FFF77CFE8D20FFF779FE1420A4
:100B5000FFF776FEAF20FFF773FEFFF7A2FE70BD32
:100B6000000C0140701F000810B56FF0040000F089
:100B70007AF92E4800682E49B0FBF1F02D49087033
:100B80000846007800EB4001C1EBC0104FF6FF7142
:100B900001EAC0002849088010BD0146254A1278A4
:100BA0004A434FF0E0235A6100229A611A461269C3
:100BB00042F001021A6100BF4FF0E022106900F01C
:100BC00001021AB100F48032002AF5D04FF0E02281
:100BD000126922F001024FF0E0231A6100229A61AB
:100BE00070470146144A12884A434FF0E0235A6185
:100BF00000229A611A46126942F001021A6100BF8E
:100C00004FF0E022106900F001021AB100F48032C6
:100C1000002AF5D04FF0E022126922F001024FF0D5
:100C2000E0231A6100229A61704700000000002052
:100C300000127A001400002016000020014600BFB8
:100C4000704700BF704700BF4B4A128802F0400255
:100C5000002AF9D0C2B2484B1B1D1A80704710B54C
:100C600086B00446012144F2040000F037FC4248FB
:100C700000F098FC4FF40070ADF8140003208DF8DC
:100C8000160018208DF8170005A93C4800F06AF9F5
:100C90004FF48060ADF8140004208DF8170005A90A
:100CA000364800F05FF925208DF8000003208DF80C
:100CB00001008DF8020001208DF80300684600F065
:100CC00088F801940020ADF80800ADF80A00ADF8EE
:100CD0000C00ADF810000C20ADF80E0001A926485C
:100CE00000F0A3FC012240F22551234800F035FD1D
:100CF0000121214800F025FD06B010BD10B540F2DD
:100D000025511D4800F00EFE10B31B4800F08AFD6F
:100D1000C4B21B48008800F40040C8B918480088D5
:100D200000F4804060B10A2C03D0002014490880F0
:100D300020E01348008840F400401149088019E081
:100D40000D2C06D10E48008840F480400C490880E4
:100D500010E00B480088C0F30D000A490C54084805
:100D60000088401C0649088008460088C72801DD25
:100D70000020088010BD000000380140000801403C
:100D80001C00002034000020094880470948004723
:100D9000FEE7FEE7FEE7FEE7FEE7FEE7FEE7FEE72B
:100DA000FEE7FEE704480549054A064B7047000088
:100DB0004F06000831010008600100206007002094
:100DC000600300206003002031490143314A116073
:100DD000704770B5002100230F22C47804B32D4C56
:100DE000246804F4E064C4F5E064210AC1F104035A
:100DF000CA40447804FA03F184781440214309017D
:100E0000254C0678A155047804F01F050124AC4058
:100E100005786D11AD0005F1E025C5F8004109E048
:100E2000047804F01F050124AC401C4D06787611AF
:100E300045F8264070BD1A4A0A400243154B1B1F55
:100E40001A60704739B1134A121D12680243114BE0
:100E50001B1D1A6006E00F4A121D126882430D4BDB
:100E60001B1D1A607047042808D14FF0E021096962
:100E700041F004014FF0E022116107E04FF0E02162
:100E8000096921F004014FF0E02211617047000070
:100E90000000FA050CED00E000E400E080E100E075
:100EA00080FFFF1F10B50446CC48844208D10121C1
:100EB000042000F02DFB0021042000F029FB46E077
:100EC000C748844208D10121082000F021FB0021FD
:100ED000082000F01DFB3AE0C248844208D10121FD
:100EE000102000F015FB0021102000F011FB2EE077
:100EF000BD48844208D10121202000F009FB0021D7
:100F0000202000F005FB22E0B848844208D10121EE
:100F1000402000F0FDFA0021402000F0F9FA16E030
:100F2000B348844208D10121802000F0F1FA002169
:100F3000802000F0EDFA0AE0AE48844207D101219A
:100F4000801500F0E5FA0021A01500F0E1FA10BDCF
:100F500010B50121084600F0DBFA0021012000F065
:100F6000D7FA10BD2DE9F0410246002500260020E9
:100F700000230024002791F803C00CF00F0591F81E
:100F800003C00CF0100CBCF1000F03D091F802C0AC
:100F90004CEA050591F800C0BCF1000F31D014688F
:100FA00000202BE04FF0010C0CFA00F3B1F800C068
:100FB0000CEA03069E4220D183004FF00F0C0CFA7E
:100FC00003F7BC4305FA03FC4CEA040491F803C0A0
:100FD000BCF1280F06D14FF0010C0CFA00FCC2F84E
:100FE00014C00AE091F803C0BCF1480F05D14FF0DE
:100FF000010C0CFA00FCC2F810C0401C0828D1D328
:101000001460B1F800C0BCF1FF0F34DD546800205B
:101010002EE000F1080C4FF0010808FA0CF3B1F8CB
:1010200000C00CEA03069E4221D183004FF00F0C52
:101030000CFA03F7BC4305FA03FC4CEA040491F8EC
:1010400003C0BCF1280F05D100F1080C08FA0CF818
:10105000C2F8148091F803C0BCF1480F07D100F129
:10106000080C4FF0010808FA0CF8C2F81080401C78
:101070000828CED35460BDE8F0814FF6FF7101809F
:10108000022181700421C1707047024600209368DC
:101090000B400BB1012000E000207047014688683A
:1010A00080B2704702460020D3680B400BB101208C
:1010B00000E0002070470146C86880B270470161B7
:1010C0007047416170470AB1016100E041617047BA
:1010D000C16070474FF480320A438261816182614E
:1010E00082698269704702460020434B18684FF6B8
:1010F0008073184040EA021008433F4B1860704765
:101100003E49C8617047F0B50A460023002400211B
:10111000002500F00046B6F1004F02D1364EF169CD
:1011200001E0354E7168C0F3034583B200F4401608
:10113000B6F5401F08D121F070612F4E766826F079
:1011400070662D4F7E6012E000F48016B6F5801FA9
:1011500006D1032606FA05F4A14341F0706106E0CA
:10116000460D360103FA06F6B14341F0706122B133
:10117000460D360103FA06F6314300F00046B6F19B
:10118000004F02D11C4EF16101E01B4E7160F0BDB9
:1011900030B500228B071C0F0F2303FA04F2164B05
:1011A00008338C1053F824309343134C08348D10BB
:1011B00044F8253023468C1053F824308C07240F34
:1011C00000FA04F423430C4C08348D1044F8253005
:1011D00030BD0A49DC31086070470000000801405A
:1011E000000C0140001001400014014000180140B3
:1011F000001C01400020014000000140000020428E
:10120000DF48006840F00100DD490860084640689A
:10121000DC490840DA49486008460068DA49084075
:10122000D74908600846006820F480200860084616
:10123000406820F4FE0048604FF41F00886070474B
:10124000CF49096821F48031CD4A116011460968FF
:1012500021F480211160B0F5803F03D0B0F5802FDC
:101260000ED106E0C649096841F48031C44A1160D4
:1012700007E0C349096841F4A021C14A116000E0B8
:1012800000BF00BF704710B50146002200230020B8
:101290004A11012A02D1BA4C236806E0022A02D17F
:1012A000B74C236A01E0B64C636A01F01F020124C7
:1012B00094401C400CB1012000E0002010BD38B566
:1012C000002000900024002500BF3120FFF7DBFF45
:1012D00005460098401C00900098B0F5A06F01D022
:1012E000002DF2D03120FFF7CEFF08B1012400E03D
:1012F0000024204638BD01460020A14A106820F095
:10130000F80040EAC10010607047A04908607047CB
:10131000024600209A4B586820F47C1042EA0103F0
:101320001843974B586070479849086670470146C4
:101330000020934A506820F0030008435060704733
:101340008F48406800F00C007047014600208C4A2E
:10135000506820F0F00008435060704701460020BC
:10136000874A506820F4E0600843506070470146A7
:101370000020834A506820F4605040EAC100506069
:10138000704729B17E4A527A02437D4B5A7204E07B
:101390007B4A527A82437A4B5A7270477B49D831E2
:1013A0000860704701460020754A506820F44040AC
:1013B0000843506070470021714A20321170704A12
:1013C00082F82010012802D004280AD104E001216B
:1013D0006B4A2032117005E00521694A20321170F4
:1013E00000E000BF00BF704769490860704764496A
:1013F000096A0143624A11627047654944390860CD
:10140000704730B500210022002400235C4D6D6838
:1014100005F00C0121B1042905D0082923D105E0EC
:101420005C4D056022E05B4D05601FE0544D6D682A
:1014300005F47012524D6D6805F48034022505EBF9
:1014400092421CB9544D554305600BE04C4D6D68FC
:1014500005F400351DB1504D5543056002E04D4D7A
:101460005543056002E04B4D056000BF00BF444D91
:101470006D6805F0F0010909484D6B5C0568DD40B9
:1014800045603F4D6D6805F4E061090A434D6B5CB2
:101490004568DD4085603A4D6D6805F46051C90AC4
:1014A0003E4D6B5C4568DD40C560354D6D6805F4AB
:1014B0004041890B3A4D6B5CC568B5FBF3F505619E
:1014C00030BD29B12E4A526902432D4B5A6104E0C6
:1014D0002B4A526982432A4B5A61704729B1284AE4
:1014E00092690243264B9A6104E0254A926982433D
:1014F000234B9A61704729B1214AD2690243204B9C
:10150000DA6104E01E4AD26982431D4BDA617047FA
:1015100029B11B4AD2680243194BDA6004E0184A29
:10152000D2688243164BDA60704729B1144A1269B7
:101530000243134B1A6104E0114A12698243104BB3
:101540001A61704712494039086070470F49C864F2
:1015500070470B49C87170470948406A40F0807075
:1015600007494862704701460020054A92680A40D0
:101570000AB1012000E000207047014988727047DD
:10158000001002400000FFF8FFFFF6FE000042429C
:101590008004424200127A0000093D001E00002033
:1015A0002E00002010B50446FB48844209D10121D9
:1015B0008803FFF7ADFF00214FF48040FFF7A8FF3D
:1015C00032E0F648844209D101214804FFF7ADFF1B
:1015D00000214FF40030FFF7A8FF25E0F0488442D7
:1015E00009D101218804FFF7A0FF00214FF48020DA
:1015F000FFF79BFF18E0EB48844209D10121C804A2
:10160000FFF793FF00214FF40020FFF78EFF0BE060
:10161000E548844208D101210805FFF786FF002133
:101620004FF48010FFF781FF10BD2DE9F04786B021
:1016300005460E460024A24600BFA1460027B089F9
:1016400000B100BF2F462C8A4CF6FF700440F08892
:1016500004432C82AC894EF6F3100440B0883189E3
:101660000843718908430443AC81AC8A4FF6FF40BC
:101670000440B0890443AC8201A8FFF7C2FEC6480B
:10168000874202D1DDF810A001E0DDF80CA0A889A6
:1016900000F4004040B10AEBCA0000EB0A103168C8
:1016A0004900B0FBF1F807E00AEBCA0000EB0A10B2
:1016B00031688900B0FBF1F86420B8FBF0F0040158
:1016C0002009642101FB1089A88900F4004040B181
:1016D000322000EBC900B0FBF1F000F0070004433A
:1016E00008E0322000EB09106421B0FBF1F000F0BB
:1016F0000F0004432C8106B0BDE8F0874FF416516B
:10170000016000218180C18001810C214181002183
:101710008181704710B502460020108A4FF2FF0306
:1017200018400B884C8823438C882343CC88234360
:101730001843108210BD0021018041808180C1804A
:10174000704721B1828942F40052828104E082898B
:101750004DF6FF731A4082817047F0B503460024AE
:1017600000260025002040F66A17B94200D100BFCC
:101770001846C1F3421401F01F06012707FA06F5C7
:10178000012C01D10C3004E0022C01D1103000E01A
:1017900014301AB107682F43076002E00768AF43AF
:1017A0000760F0BD1AB1838A0B43838202E0838A0B
:1017B0008B4383827047028A4FF6F0731A4002828D
:1017C000028A0A430282704782894FF2FF731A40ED
:1017D000828182890A438281704721B1828942F0E5
:1017E0000202828104E082894FF6FD731A408281F1
:1017F0007047028A4FF6DF731A400282028A0A4358
:101800000282704721B1028A42F48042028204E0DF
:10181000028A4BF6FF731A4002827047C1F3080236
:101820008280704701468888C0F30800704781892C
:1018300041F0010181817047028BD2B20283028B99
:1018400042EA012202837047028B02F47F42028344
:10185000028B0A430283704721B1828A42F0200240
:10186000828204E0828A4FF6DF731A4082827047D8
:1018700021B1828A42F01002828204E0828A4FF60D
:10188000EF731A408282704721B1828A42F00802C7
:10189000828204E0828A4FF6F7731A408282704790
:1018A00021B1828942F40042828103E08289C2F33D
:1018B0000E028281704721B1828A42F400628282E4
:1018C00004E0828A4FF2FF731A4082827047828A54
:1018D0004FF6FB731A408282828A0A4382827047E3
:1018E00021B1828A42F00202828204E0828A4FF6AB
:1018F000FD731A408282704702460020B1F5007FD6
:1019000000D100BF13880B400BB1012000E0002084
:10191000704701F40072B2F5007F00D100BFCA43E6
:101920000280704770B50246002400230025002085
:1019300040F66A16B14200D100BFC1F3421501F072
:101940001F03012606FA03F3012D02D196893340C5
:1019500006E0022D02D1168A334001E0968A334018
:101960000C12012606FA04F41688344013B10CB1A7
:10197000012000E0002070BD10B50022002340F6D9
:101980006A14A14200D100BF0A1201249440A3B2FC
:10199000DC43048010BD00000038014000440040DA
:1019A00000480040004C00400050004008B54FF493
:1019B0008040ADF8000004208DF803006946C1485E
:1019C000FFF7D0FA08BD08B54FF48040ADF800002D
:1019D00003208DF8020010208DF803006946B948F5
:1019E000FFF7C0FA08BD10B5FFF7EDFF4FF48041D7
:1019F000B448FFF764FB4FF48041B248FFF761FB46
:101A00001420FFF7EEF84FF48041AE48FFF757FB84
:101A10002320FFF7C2F810BD10B50024FFF7C6FF62
:101A20004FF48041A748FFF730FB012801D1002087
:101A300010BD01E0601CC4B24FF48041A148FFF723
:101A400024FB08B9642CF5DB2820FFF7A6F8282032
:101A5000FFF7A3F80120EBE710B5002404E0601CB9
:101A6000C4B20220FFF799F84FF480419548FFF780
:101A70000CFB012801D1322CF1DB2D2C01DDFF20E4
:101A800010BD002404E0601CC4B20220FFF785F8FA
:101A90004FF480418B48FFF7F8FA08B9322CF2DB9B
:101AA0002820FFF77AF84FF480418648FFF7EDFAD7
:101AB000012800D1E4E70020E2E770B5002400250A
:101AC00006E06006040EFFF7C7FF0443681CC5B2BA
:101AD000082DF6DB204670BD7CB505460E46FFF7A7
:101AE00082FFFFF799FFF8B9002405E0FFF7E5FF53
:101AF0000DF80400601CC4B2052CF7DB9DF8000053
:101B00009DF8011008449DF8021008449DF8031048
:101B100008449DF80410884208D19DF800003070F8
:101B20009DF80200287001E001207CBD0020FCE748
:101B300010B501210820FFF7D1FCFFF754FFFFF794
:101B40006BFF10BD2DE9F05F04460027B946BA4689
:101B500001264FF0000BFFF729FF4FF0000835E09A
:101B600080262AE003E009F1010000F0FF094FF4AC
:101B700080415448FFF789FA10B9B9F1320FF2DB0E
:101B80001E20FFF70AF84FF480414E48FFF77DFA18
:101B9000012801D1374300E0B74303E00AF1010017
:101BA00000F0FF0A4FF480414648FFF76EFA012823
:101BB00002D1BAF1320FF1DB7610002ED2D104F847
:101BC0000870002708F1010000F0FF08B8F1050FC8
:101BD000C6DB002505E0605D584400F0FF0B681C83
:101BE000C5B2042DF7DB0BF0FF0083462179884254
:101BF00002D10120BDE8F09F0020FBE708B54FF4BB
:101C00008040ADF8000010208DF8030003208DF80F
:101C1000020069462B48FFF7A5F908BD10B5044638
:101C2000FFF7C4FE4FF480412648FFF74AFA14201C
:101C3000FEF7D7FF4FF480412248FFF740FA2320F8
:101C4000FEF7ABFFFFF7B2FE4FF480411D48FFF7F0
:101C50001CFA88BB00BF4FF480411A48FFF715FA01
:101C60000028F8D000BF4FF480411648FFF70DFA66
:101C70000128F8D0FFF721FF2070FFF71EFF6070EA
:101C8000FFF71BFFA070FFF718FFE070FFF715FFCD
:101C90002071FFF7B3FF4FF480410A48FFF70FFAB6
:101CA000207861780844A1780844E17808442179D3
:101CB000884202D1012010BD01E00020FBE7002096
:101CC000F9E70000000C0140704700000FB41CB59C
:101CD000074B06AA7B4469460090059800F001F97D
:101CE0000020694600F010F91CBC5DF814FB0000F0
:101CF000310200002DE9F0410E460446002020622A
:101D00002046E168884730B3252805D0D4E9012171
:101D10009047206A401CF2E7E16820460027884788
:101D2000050018D0A5F14100192802D820354FF43C
:101D300000673246294620462760FEF733FA40B155
:101D4000012804D0F61D26F007060836D8E7361D10
:101D5000D6E72846DAE7206ABDE8F0812DE9F041B0
:101D60000646002410687529314615A510D0AFF33A
:101D70000080002802DA404212A507E031688A0795
:101D800001D511A502E0490704D510A5012401E001
:101D9000AFF3008000210A2306F1240707E0B0FB1F
:101DA000F3F203FB1200303078541046491C00282F
:101DB000F5D123462A463046BDE8F04100F033B85D
:101DC000000000002D0000002B000000200000009B
:101DD0004FF0000200B5134694469646203922BFC4
:101DE000A0E80C50A0E80C50B1F12001BFF4F7AF0F
:101DF000090728BFA0E80C5048BF0CC05DF804EBF1
:101E0000890028BF40F8042B08BF704748BF20F85E
:101E1000022B11F0804F18BF00F8012B704770475C
:101E20007047704770472DE9F0470D469946924636
:101E3000044600F124080168880604D5E06921F011
:101E40001001216000E00120A84201DD471B00E0F5
:101E50000027A1697A1902EB0900081AA06120780D
:101E6000C00602D42046AFF30080002608E0D4E983
:101E700001211AF806009047206A401C761C206257
:101E80004E45F4DB2078C0060AD52046AFF300802B
:101E900006E0D4E9012130209047206A401C2062EE
:101EA000381EA7F10107F4DC07E0D4E9012118F896
:101EB00005009047206A401C2062281EA5F10105FC
:101EC000F3DC2046AFF300802078000602D5022024
:101ED000BDE8F0870120FBE701694A1C0261087830
:101EE000704700B58FB0CDE901310021059105495A
:101EF0007944CDE9031011466846FFF7FBFE0FB0A9
:101F000000BD0000E5FFFFFF0A6802F8010B0A6050
:101F10007047754600F028F8AE46050069465346FE
:101F200020F00700854618B020B5FEF73BFFBDE85E
:101F300020404FF000064FF000074FF000084FF030
:101F4000000B21F00701AC46ACE8C009ACE8C009C1
:101F5000ACE8C009ACE8C0098D4670470446AFF351
:101F600000802046FEF730F900487047FC00002052
:101F70000000000000000000000000000000000061
:101F8000000000F8000000000000003330000000F6
:101F900000100C06100C06000000000000000000FD
:101FA00040C07840C0784000043F04043F0404006F
:101FB000007088FC08300000001820FF211E00007F
:101FC000F008F000E018000000211C031E211E0094
:101FD00000F00888700000001E212324192721101A
:101FE00010160E00000000000000000000000000BD
:101FF000000000E018040200000000071820400064
:1020000000020418E0000000004020180700000053
:10201000404080F0804040000202010F01020200B7
:10202000000000F0000000000101011F010101009B
:10203000000000000000000080B070000000000000
:102040000000000000000000000101010101010189
:102050000000000000000000003030000000000020
:1020600000000000806018040060180601000000F5
:1020700000E010080810E000000F102020100F00F2
:10208000001010F8000000000020203F2020000079
:1020900000700808088870000030282422213000D1
:1020A00000300888884830000018202020110E00D9
:1020B0000000C02010F8000000070424243F240082
:1020C00000F80888880808000019212020110E0057
:1020D00000E0108888180000000F112020110E0069
:1020E00000380808C83808000000003F0000000061
:1020F0000070880808887000001C222121221C0022
:1021000000E010080810E0000000312222110F004A
:10211000000000C0C00000000000003030000000DF
:10212000000000800000000000008060000000004F
:102130000000804020100800000102040810200068
:1021400040404040404040000404040404040400B3
:102150000008102040800000002010080402010048
:10216000007048080808F000000000303601000048
:10217000C030C828E810E0000718272423140B00FB
:102180000000C038E0000000203C23020227382075
:1021900008F8888888700000203F202020110E0059
:1021A000C030080808083800071820202010080050
:1021B00008F808080810E000203F202020100F0039
:1021C00008F88888E8081000203F20202320180005
:1021D00008F88888E8081000203F2000030000006D
:1021E000C03008080838000007182020221E02000E
:1021F00008F808000008F808203F210101213F20CD
:10220000000808F8080800000020203F20200000F7
:1022100000000808F8080800C08080807F000000E7
:1022200008F888C028180800203F20012638200020
:1022300008F8080000000000203F20202020300087
:1022400008F8F800F8F80800203F003F003F2000A1
:1022500008F830C00008F808203F200007183F00A9
:10226000E01008080810E0000F10202020100F00D8
:1022700008F808080808F000203F210101010000CB
:10228000E01008080810E0000F18242438504F0010
:1022900008F8888888887000203F2000030C3020D0
:1022A00000708808080838000038202121221C000E
:1022B000180808F8080818000000203F2000000057
:1022C00008F808000008F808001F202020201F0040
:1022D0000878880000C83808000007380E010000A0
:1022E000F80800F80008F800033C0700073C03006A
:1022F000081868808068180820302C03032C3020D0
:102300000838C800C83808000000203F200000003E
:1023100010080808C8380800203826212020180096
:10232000000000FE020202000000007F404040006A
:10233000000C30C000000000000000010638C000A2
:1023400000020202FE000000004040407F0000004A
:10235000000004020202040000000000000000006F
:10236000000000000000000080808080808080806D
:102370000002020400000000000000000000000055
:1023800000008080808000000019242222223F204B
:1023900008F8008080000000003F112020110E008E
:1023A0000000008080800000000E1120202011001D
:1023B000000000808088F800000E112020103F20CF
:1023C0000000808080800000001F22222222130053
:1023D000008080F0888888180020203F202000009E
:1023E0000000808080808000006B94949493600053
:1023F00008F8008080800000203F210000203F205E
:1024000000809898000000000020203F202000005D
:10241000000000809898000000C08080807F00004D
:1024200008F8000080808000203F24022D3020002A
:10243000000808F8000000000020203F20200000D5
:102440008080808080808000203F20003F20003FEF
:102450008080008080800000203F210000203F20FD
:102460000000808080800000001F202020201F00AE
:10247000808000808000000080FFA12020110E00DD
:102480000000008080808000000E112020A0FF80CE
:10249000808080008080800020203F21200001007B
:1024A00000008080808080000033242424241900D0
:1024B000008080E0808000000000001F20200000DD
:1024C0008080000000808000001F202020103F201E
:1024D000808080000080808000010E3008060100AE
:1024E00080800080008080800F300C030C300F0053
:1024F00000808000808080000020312E0E3120007E
:10250000808080000080808080818E7018060100AD
:1025100000808080808080000021302C22213000CB
:1025200000000000807C020200000000003F4040EC
:1025300000000000FF00000000000000FF0000009D
:102540000002027C800000000040403F00000000CC
:102550000006010102020404000000000000000067
:102560008025000800000020340000006C010008F5
:10257000B4250008340000202C0700008801000862
:1025800000A24A0400000000000000000102030451
:10259000060708090000000000000000000000001D
:1025A00000000102030401020304060708090204F3
:0425B0000608000019
:0400000508000131BD
:00000001FF
