:020000040800F2
:10000000F8070020811100084D0900084F09000879
:1000100053090008570900085B09000800000000A8
:100020000000000000000000000000005F09000860
:100030006109000800000000630900086509000864
:100040009B1100089B1100089B1100089B110008E0
:100050009B1100089B1100089B1100089B110008D0
:100060009B1100089B1100089B1100089B110008C0
:100070009B1100089B1100089B1100089B110008B0
:100080009B1100089B1100089B1100089B110008A0
:100090009B1100089B1100089B1100089B11000890
:1000A0009B1100089B1100089B1100089B11000880
:1000B0009B1100089B1100089B1100089B11000870
:1000C0009B1100089B1100089B1100089B11000860
:1000D0009B110008F51000089B1100089B110008F7
:1000E0009B1100089B1100089B1100089B11000840
:1000F0009B1100089B1100089B1100089B11000830
:100100009B1100089B1100089B1100089B1100081F
:100110009B1100089B1100089B1100089B1100080F
:100120009B1100089B1100089B1100089B110008FF
:1001300000F002F800F03FF80AA090E8000C8244BA
:100140008344AAF10107DA4501D100F034F8AFF297
:10015000090EBAE80F0013F0010F18BFFB1A43F0A5
:1001600001031847803B0000A03B0000103A24BF69
:1001700078C878C1FAD8520724BF30C830C144BF0C
:1001800004680C607047000000230024002500264E
:10019000103A28BF78C1FBD8520728BF30C148BFEA
:1001A0000B607047642902F08986002070471FB5F4
:1001B0001FBD10B510BD02F036FF1146FFF7F7FF67
:1001C00000F09BFA02F054FF03B4FFF7F2FF03BC08
:1001D00000F033FF1CB50620ADF8040010208DF8A8
:1001E000070003208DF806004FF4E040ADF8000052
:1001F00010208DF8030003208DF8020001A9FE48AD
:1002000001F0ACF86946FD4801F0A8F80421FA486D
:1002100001F051F90221F84801F04DF94FF48051F5
:10022000F64801F048F94FF40051F44801F045F95F
:100230001CBD08B50121082001F04CFB40F2034031
:10024000ADF8000048208DF8030003208DF802006F
:100250006946EA4801F082F808BD70B5E8480068D0
:10026000002830D1142000F0B8FEE548006850BBEB
:10027000002509E0681CC5B20A2000F0AEFEB5F505
:10028000FA7F01DB032070BDDD4800680028F1D053
:10029000002414E0142000F0A0FED948006860B9E2
:1002A0000A2000F09AFED648006830B900BFD44852
:1002B00000680028FBD00220E5E7601CC4B2322CA5
:1002C000E8DB0120DFE70020DDE710B5CD4800685E
:1002D000032190FBF1F201FB1200A0B90120C849F3
:1002E0008C3108604FF47A7000F077FE0020C64928
:1002F000C1F8B4014FF47A7000F06FFE0120C049DC
:100300008C3108600BE0BF480068032190FBF1F2DC
:1003100001FB1200012802D1B9498C310860B948AB
:100320000068401CB749086010BDB648006803214A
:1003300090FBF1F201FB120018B10020B0498C31A2
:1003400008600020AF49086070472DE9FC5FAF48A6
:1003500002F09CFCAE48006802F048FF04460D46DF
:10036000AA49C87802F059FFAA4AAB4BCDE900016F
:1003700002F0A2FF06460F46A449887802F04DFF1E
:10038000804632463B4602F07DFE824622462B46A0
:1003900003F090F84BD2A148006802F027FFCDE9A6
:1003A00000019A49487802F038FF8246994A9A4BF0
:1003B00002F082FF06460F469449087802F02DFFAE
:1003C000804632463B4602F05DFE0446DDE90023EE
:1003D00003F070F82BD2FFF7A8FF012090490860C6
:1003E00000209049C1F888018849887888490968BF
:1003F00002F0FEFC002002F006FD01208049883159
:100400000860322000F0E9FD00207F49C1F8B0010A
:10041000142000F0E2FD01207949883108601420A1
:1004200000F0DBFD00207849C1F8B00135E17848E3
:10043000006802F0DBFE04460D467449C87802F0FD
:10044000ECFE744A744BCDE9000102F035FF8046A2
:1004500089466E49887802F0E0FE824642464B4665
:1004600002F010FE064622462B4602F0E9FE35D287
:100470006A48006802F0BAFE04460D4663494878AF
:1004800002F0CBFE8246634A634B02F015FFCDE9D2
:1004900000015E49087802F0C0FE8046DDE90023D5
:1004A00002F0F0FD064622462B4603F003F815D273
:1004B0000020534988310860FFF737FF0120594970
:1004C000C1F88401C1F88801504948785349096846
:1004D00002F08EFC012002F096FCDEE04C48006841
:1004E00002F084FE04460D464849C87802F095FEA5
:1004F0000646484A484B02F0DFFECDE90001434979
:10050000887802F08AFE8046DDE9002302F0BAFD19
:10051000824622462B4602F093FE36D23F480068C0
:1005200002F064FE804689463849487802F075FE3C
:100530008246384A384B02F0BFFE04460D46334926
:10054000087802F06AFE064622462B4602F09AFD23
:1005500042464B46CDE9000102F072FE15D2FFF78C
:10056000B4FE00202E49086001202E49C1F8880100
:1005700027480168002002F03BFC012002F043FC08
:1005800000201F498831086087E02148006802F098
:100590002DFE82468B461D49C87802F03EFE8046FD
:1005A0001C4A1D4B02F088FE04460D461749887808
:1005B00002F033FE064622462B4602F063FD524609
:1005C0005B46CDE9000102F075FF63D21348006875
:1005D00002F00CFE82468B460C49487802F01DFE64
:1005E00080460C4A0C4B02F067FE04460D46074954
:1005F000087802F012FE17E000080140000C0140EC
:100600002881214218000020008021421000002093
:10061000080000209A9999999999B93F0C000020F7
:100620008401214200002142064622462B4602F068
:1006300029FD52465B46CDE9000102F001FE29D2B8
:10064000FFF743FE0120A94908600020A849C1F82E
:100650008801A8498878A849096802F0C9FB0020E8
:1006600002F0D1FB0120A54908600A2000F0B5FC8A
:100670000020A349C1F8B0010A2000F0AEFC01201F
:100680009E4908600A2000F0A8FC00209C49C1F89F
:10069000B00102E00020994908609648C37882784A
:1006A00098A19C4802F0C2FB9A4A0121084600F03A
:1006B00040FB90484378027897A1964802F0B6FB39
:1006C000944A0121032000F034FB8B4896A1026874
:1006D000904802F0ABFB8F4A0121022000F029FB79
:1006E000944895A102688B4802F0A0FB894A012139
:1006F000042000F01EFBBDE8FC9F00F031FC00F080
:10070000D4FB02F019FBFFF794FDFFF763FDFFF741
:100710001CFEEAE0FFF7A1FD8A4908700846007850
:10072000012804D0022819D0032825D123E0012074
:100730007249086084480068401C83490860084684
:100740000068022801DD00200860FFF7FEFD64203C
:1007500000F043FC0020694908600EE00120674971
:10076000086079480068401C7749086000206449A7
:10077000C1F8B00101E000E000BF00BF5F48AC3845
:10078000006808BB7048006801281DD100BF5B48A5
:10079000AC3800680028FAD157480068401C564918
:1007A0000860012055490860FFF7CFFD1E2000F0CA
:1007B00014FC00205249C1F8B0014F480068642879
:1007C00002DD64204C4908604C48B038006808BB22
:1007D0005D48006801281DD100BF4848B038006856
:1007E0000028FAD144480068401E434908600120AF
:1007F000424908601E2000F0F0FBFFF7A6FD002034
:100800003F49C1F8B0013C480068012802DA0120E4
:10081000394908603948AC38006808BB4A48006864
:1008200002281DD100BF3548AC3800680028FAD135
:1008300040480068401C3F49086001202F4908607B
:10084000FFF783FD1E2000F0C8FB00202C49C1F8F3
:10085000B00138480068642802DD6420354908602A
:100860002648B038006808BB3748006802281DD108
:1008700000BF2248B03800680028FAD12D4800682F
:10088000401E2C49086001201C490860FFF75DFDEF
:100890001E2000F0A2FB00201949C1F8B001254834
:1008A0000068012802DA0120224908602648006811
:1008B00001280BD110481CA10268164802F0B6FAB4
:1008C000144A0121022000F034FA0EE01E480068AC
:1008D00002280AD1174818A102680E4802F0A6FAA9
:1008E0000C4A0121042000F024FA13E7840121427C
:1008F000000021421000002008000020B0812142A9
:100900000080214254656D703A25642E2564204391
:10091000000000005000002048756D693A25642EE3
:100920002564202525000000547365743A25642051
:10093000430000000C000020487365743A256420D1
:10094000252500000200002004000020704700BFA1
:10095000FEE700BFFEE700BFFEE700BFFEE770470F
:1009600070477047704700000CB500200190009060
:100970006C48006840F480306A49086000BF6948EC
:10098000006800F4003000900198401C019000982D
:1009900018B90198B0F5A06FF1D16248006800F471
:1009A000003010B10120009001E00020009000987C
:1009B000012843D15C48006840F010005A490860A3
:1009C0000846006820F0030008600846006840F010
:1009D0000200086053484068524948600846406831
:1009E00048600846406840F48060486008464068B7
:1009F00020F47C1048600846406840F4E8104860E5
:100A00000846006840F08070086000BF45480068F4
:100A100000F000700028F9D04248406820F0030040
:100A2000404948600846406840F00200486000BF06
:100A30003C48406800F00C000828F9D10CBD10B506
:100A4000FFF792FF10BD10B53648006840F0010076
:100A500034490860084640683449084031494860D4
:100A600008460068324908402E4908600846006878
:100A700020F4802008600846406820F4FE004860AA
:100A80004FF41F008860FFF7DAFF4FF0006029493C
:100A9000086010BD10B5002100200022214B5B68CA
:100AA00003F00C0121B1042906D0082928D107E060
:100AB000214B224C236027E01F4B204C236023E076
:100AC000184B5B6803F47010164B5B6803F48032BC
:100AD000022303EB904022B9194B4343174C236088
:100AE0000DE0104B5B6803F4003323B1144B434318
:100AF000124C236003E0104B4343104C236003E08F
:100B00000D4B0E4C236000BF00BF064B5B68C3F368
:100B100003130C4CE15C094B1B68CB40074C236072
:100B200010BD000000100240002002400000FFF84D
:100B3000FFFFF6FE08ED00E000127A001C00002026
:100B400000093D002000002008B50121082000F028
:100B5000C1FE14208DF8030003208DF802004FF42D
:100B60008070ADF800006946FB4800F0F7FB4FF4D9
:100B70000070ADF800006946F74800F0EFFB012275
:100B80001102F54800F09BFC01225102F24800F0EE
:100B900096FC08BD10B501225102EF4800F08FFC11
:100BA00001221102EC4800F08AFC00224FF400718F
:100BB000E94800F084FC00224FF48071E64800F020
:100BC0007EFC10BD10B500224FF40071E24800F029
:100BD00076FC01221102E04800F071FC0122510272
:100BE000DD4800F06CFC10BD70B50546002415E032
:100BF0008020204100EA05024FF40071D64800F041
:100C00005EFC01221102D44800F059FC00224FF48E
:100C10008071D14800F053FC601CC4B2082CE7DBA3
:100C200001221102CC4800F04AFC00224FF48071EE
:100C3000C94800F044FC70BD10B50446FFF7AAFF98
:100C40007820FFF7D1FF0020FFF7CEFF2046FFF707
:100C5000CBFFFFF7B7FF10BD10B50446FFF79AFFB3
:100C60007820FFF7C1FF4020FFF7BEFF2046FFF7C7
:100C7000BBFFFFF7A7FF10BD70B505460C4645F05A
:100C8000B000FFF7D9FF102141EA1410FFF7D4FF9D
:100C900004F00F00FFF7D0FF70BD70B500240EE028
:100CA00000212046FFF7E8FF002504E00020FFF7C1
:100CB000D3FF681CC5B2802DF8DB601CC4B2082CC1
:100CC000EEDB70BD2DE9F04105460E461746721E5B
:100CD000D206110E6A1E5206100EFFF7CDFF002439
:100CE00009E0A7F120019D4A02EB0111085DFFF721
:100CF000B3FF601CC4B2082CF3DB721ED206110EC7
:100D00006A1E012303EB4202D0B2FFF7B5FF0024B5
:100D10000BE0A7F12001914A02EB011204F1080156
:100D2000505CFFF799FF601CC4B2082CF1DBBDE8F2
:100D3000F0812DE9F04107460E461546002407E0F4
:100D40002A5D3019C1B23846FFF7BCFF601CC4B23F
:100D5000285D0028F4D1BDE8F08110B502460120DD
:100D600000E050430B00A1F10101FAD110BD2DE9C3
:100D7000F04780460E4617461D46002415E0281B06
:100D8000411E0A20FFF7E9FFB7FBF0F00A21B0FB94
:100D9000F1F201FB120000F130093019C1B24A46EC
:100DA0004046FFF78FFF601CC4B2AC42E7DBBDE8F2
:100DB000F0872DE9F0478146884615461E46002DEE
:100DC00006DB2B2241464846FFF77CFF2F4605E015
:100DD0002D2241464846FFF775FF6F42002417E079
:100DE000301B411E0A20FFF7B8FFB7FBF0F00A21C5
:100DF000B0FBF1F201FB120000F1300A08EB040035
:100E0000401CC1B252464846FFF75CFF601CC4B2AA
:100E1000B442E5DBBDE8F0872DE9F04781460E4698
:100E200090461F4600241DE0381B411E1020FFF78E
:100E300094FFB8FBF0F000F00F050A2D08DA05F179
:100E40003000C2B23019C1B24846FFF73BFF07E09D
:100E500005F13700C2B23019C1B24846FFF732FF80
:100E6000601CC4B2BC42DFDBBDE8F0872DE9F0476F
:100E700080460E4617461D46002412E0281B411EE0
:100E80000220FFF76AFFB7FBF0F000F0010000F16D
:100E900030093019C1B24A464046FFF713FF601CC3
:100EA000C4B2AC42EADBBDE8F08770B5002406E0CE
:100EB000002500E06D1CB5F57A7FFBD3641CB4F50A
:100EC0007A7FF5D3FFF740FEAE20FFF7B5FED520C1
:100ED000FFF7B2FE8020FFF7AFFEA820FFF7ACFEC1
:100EE0003F20FFF7A9FED320FFF7A6FE0020FFF763
:100EF000A3FE4020FFF7A0FEA120FFF79DFEC82023
:100F0000FFF79AFEDA20FFF797FE1220FFF794FE14
:100F10008120FFF791FECF20FFF78EFED920FFF74B
:100F20008BFEF120FFF788FEDB20FFF785FE3020E7
:100F3000FFF782FEA420FFF77FFEA620FFF77CFECE
:100F40008D20FFF779FE1420FFF776FEAF20FFF724
:100F500073FEFFF7A2FE70BD000C0140F4360008DE
:100F600010B56FF0040000F07AF92E4800682E49A1
:100F7000B0FBF1F02D4908700846007800EB400105
:100F8000C1EBC0104FF6FF7101EAC000284908808C
:100F900010BD0146254A12784A434FF0E0235A61BA
:100FA00000229A611A46126942F001021A6100BFDA
:100FB0004FF0E022106900F001021AB100F4803213
:100FC000002AF5D04FF0E022126922F001024FF022
:100FD000E0231A6100229A6170470146144A128880
:100FE0004A434FF0E0235A6100229A611A4612697F
:100FF00042F001021A6100BF4FF0E022106900F0D8
:1010000001021AB100F48032002AF5D04FF0E0223C
:10101000126922F001024FF0E0231A6100229A6166
:10102000704700001C00002000127A0030000020F1
:1010300032000020014600BF704700BF704700BF6C
:101040004B4A128802F04002002AF9D0C2B2484B43
:101050001B1D1A80704710B586B00446012144F26A
:10106000040000F037FC424801F0A6FB4FF400708A
:10107000ADF8140003208DF8160018208DF8170025
:1010800005A93C4800F06AF94FF48060ADF81400FF
:1010900004208DF8170005A9364800F05FF92520D7
:1010A0008DF8000003208DF801008DF8020001206A
:1010B0008DF80300684600F088F801940020ADF830
:1010C0000800ADF80A00ADF80C00ADF810000C20D7
:1010D000ADF80E0001A9264801F0B1FB012240F253
:1010E0002551234801F043FC0121214801F033FC44
:1010F00006B010BD10B540F225511D4801F01CFD91
:1011000010B31B4801F098FCC4B21B48008800F4DF
:101110000040C8B91848008800F4804060B10A2C2B
:1011200003D000201449088020E01348008840F4D0
:1011300000401149088019E00D2C06D10E480088A6
:1011400040F480400C49088010E00B480088C0F350
:101150000D000A490C5408480088401C06490880C4
:1011600008460088C72801DD0020088010BD000067
:10117000003801400008014038000020CF00002066
:101180000948804709480047FEE7FEE7FEE7FEE71B
:10119000FEE7FEE7FEE7FEE7FEE7FEE70448054957
:1011A000054A064B70470000470A00083101000855
:1011B000F8010020F8070020F8030020F8030020C1
:1011C00031490143314A1160704770B50021002355
:1011D0000F22C47804B32D4C246804F4E064C4F5F1
:1011E000E064210AC1F10403CA40447804FA03F11F
:1011F0008478144021430901254C0678A1550478D0
:1012000004F01F050124AC4005786D11AD0005F117
:10121000E025C5F8004109E0047804F01F05012429
:10122000AC401C4D0678761145F8264070BD1A4A30
:101230000A400243154B1B1F1A60704739B1134A0D
:10124000121D12680243114B1B1D1A6006E00F4A63
:10125000121D126882430D4B1B1D1A607047042833
:1012600008D14FF0E021096941F004014FF0E0227C
:10127000116107E04FF0E021096921F004014FF00E
:10128000E0221161704700000000FA050CED00E05B
:1012900000E400E080E100E080FFFF1F10B504469D
:1012A000CC48844208D10121042000F02DFB00210C
:1012B000042000F029FB46E0C748844208D1012100
:1012C000082000F021FB0021082000F01DFB3AE07F
:1012D000C248844208D10121102000F015FB0021F2
:1012E000102000F011FB2EE0BD48844208D10121FE
:1012F000202000F009FB0021202000F005FB22E067
:10130000B848844208D10121402000F0FDFA0021B4
:10131000402000F0F9FA16E0B348844208D10121D8
:10132000802000F0F1FA0021802000F0EDFA0AE0C0
:10133000AE48844207D10121801500F0E5FA002172
:10134000A01500F0E1FA10BD10B50121084600F02B
:10135000DBFA0021012000F0D7FA10BD2DE9F041A1
:10136000024600250026002000230024002791F8D3
:1013700003C00CF00F0591F803C00CF0100CBCF189
:10138000000F03D091F802C04CEA050591F800C0A7
:10139000BCF1000F31D0146800202BE04FF0010C9D
:1013A0000CFA00F3B1F800C00CEA03069E4220D10B
:1013B00083004FF00F0C0CFA03F7BC4305FA03FC53
:1013C0004CEA040491F803C0BCF1280F06D14FF099
:1013D000010C0CFA00FCC2F814C00AE091F803C03A
:1013E000BCF1480F05D14FF0010C0CFA00FCC2F81B
:1013F00010C0401C0828D1D31460B1F800C0BCF163
:10140000FF0F34DD546800202EE000F1080C4FF08F
:10141000010808FA0CF3B1F800C00CEA03069E427A
:1014200021D183004FF00F0C0CFA03F7BC4305FAEF
:1014300003FC4CEA040491F803C0BCF1280F05D169
:1014400000F1080C08FA0CF8C2F8148091F803C0F7
:10145000BCF1480F07D100F1080C4FF0010808FA61
:101460000CF8C2F81080401C0828CED35460BDE8A8
:10147000F0814FF6FF710180022181700421C1705B
:1014800070470246002093680B400BB1012000E03A
:10149000002070470146886880B2704702460020ED
:1014A000D3680B400BB1012000E0002070470146DB
:1014B000C86880B2704701617047416170470AB1E6
:1014C000016100E041617047C16070474FF48032B4
:1014D0000A43826181618261826982697047024642
:1014E0000020434B18684FF68073184040EA021002
:1014F00008433F4B186070473E49C8617047F0B5DC
:101500000A46002300240021002500F00046B6F121
:10151000004F02D1364EF16901E0354E7168C0F3DB
:10152000034583B200F44016B6F5401F08D121F000
:1015300070612F4E766826F070662D4F7E6012E047
:1015400000F48016B6F5801F06D1032606FA05F4CE
:10155000A14341F0706106E0460D360103FA06F63C
:10156000B14341F0706122B1460D360103FA06F62F
:10157000314300F00046B6F1004F02D11C4EF1613C
:1015800001E01B4E7160F0BD30B500228B071C0FCF
:101590000F2303FA04F2164B08338C1053F824304F
:1015A0009343134C08348D1044F8253023468C1097
:1015B00053F824308C07240F00FA04F423430C4C16
:1015C00008348D1044F8253030BD0A49DC310860FC
:1015D0007047000000080140000C0140001001406D
:1015E0000014014000180140001C0140002001408F
:1015F0000000014000002042DF48006840F0010088
:10160000DD49086008464068DC490840DA4948601E
:1016100008460068DA490840D7490860084600686B
:1016200020F4802008600846406820F4FE004860EE
:101630004FF41F0088607047CF49096821F480315A
:10164000CD4A11601146096821F480211160B0F57E
:10165000803F03D0B0F5802F0ED106E0C64909685F
:1016600041F48031C44A116007E0C349096841F47C
:10167000A021C14A116000E000BF00BF704710B553
:1016800001460022002300204A11012A02D1BA4C4F
:10169000236806E0022A02D1B74C236A01E0B64C67
:1016A000636A01F01F02012494401C400CB1012028
:1016B00000E0002010BD38B5002000900024002577
:1016C00000BF3120FFF7DBFF05460098401C00906B
:1016D0000098B0F5A06F01D0002DF2D03120FFF7B7
:1016E000CEFF08B1012400E00024204638BD0146A9
:1016F0000020A14A106820F0F80040EAC100106004
:101700007047A04908607047024600209A4B58680D
:1017100020F47C1042EA01031843974B586070474D
:1017200098490866704701460020934A506820F0A7
:1017300003000843506070478F48406800F00C0079
:101740007047014600208C4A506820F0F0000843A2
:101750005060704701460020874A506820F4E060DE
:1017600008435060704701460020834A506820F4C7
:10177000605040EAC1005060704729B17E4A527AF9
:1017800002437D4B5A7204E07B4A527A82437A4B81
:101790005A7270477B49D831086070470146002073
:1017A000754A506820F4404008435060704700215B
:1017B000714A20321170704A82F82010012802D03C
:1017C00004280AD104E001216B4A2032117005E09F
:1017D0000521694A2032117000E000BF00BF704748
:1017E0006949086070476449096A0143624A1162A5
:1017F0007047654944390860704730B500210022C0
:10180000002400235C4D6D6805F00C0121B1042912
:1018100005D0082923D105E05C4D056022E05B4D31
:1018200005601FE0544D6D6805F47012524D6D68EF
:1018300005F48034022505EB92421CB9544D554302
:1018400005600BE04C4D6D6805F400351DB1504D41
:101850005543056002E04D4D5543056002E04B4D98
:10186000056000BF00BF444D6D6805F0F001090937
:10187000484D6B5C0568DD4045603F4D6D6805F483
:10188000E061090A434D6B5C4568DD4085603A4D77
:101890006D6805F46051C90A3E4D6B5C4568DD40DA
:1018A000C560354D6D6805F44041890B3A4D6B5C60
:1018B000C568B5FBF3F5056130BD29B12E4A526903
:1018C00002432D4B5A6104E02B4A526982432A4B52
:1018D0005A61704729B1284A92690243264B9A619E
:1018E00004E0254A92698243234B9A61704729B1EB
:1018F000214AD2690243204BDA6104E01E4AD269D0
:1019000082431D4BDA61704729B11B4AD2680243FA
:10191000194BDA6004E0184AD2688243164BDA6049
:10192000704729B1144A12690243134B1A6104E04B
:10193000114A12698243104B1A61704712494039AB
:10194000086070470F49C86470470B49C8717047F9
:101950000948406A40F08070074948627047014674
:101960000020054A92680A400AB1012000E00020E8
:101970007047014988727047001002400000FFF86C
:10198000FFFFF6FE000042428004424200127A004D
:1019900000093D003A0000204A00002010B504462E
:1019A000FE48844208D10121C014FFF7ADFF002199
:1019B000E014FFF7A9FFC4E0B4F1804F08D1012182
:1019C0000846FFF7AEFF00210120FFF7AAFFB8E0AD
:1019D000F348844208D101210220FFF7A2FF002131
:1019E0000220FFF79EFFACE0EE48844208D10121BF
:1019F0000420FFF796FF00210420FFF792FFA0E0EC
:101A0000E948844208D101210820FFF78AFF00211C
:101A10000820FFF786FF94E0E448844208D10121C2
:101A20001020FFF77EFF00211020FFF77AFF88E0EB
:101A3000DF48844208D101212020FFF772FF0021F6
:101A40002020FFF76EFF7CE0DA48844208D10121B4
:101A50004014FFF759FF00216014FFF755FF70E0B5
:101A6000D548844209D10121C804FFF74DFF002168
:101A70004FF40020FFF748FF63E0D048844209D1CB
:101A800001210805FFF740FF00214FF48010FFF708
:101A90003BFF56E0CA48844209D101214805FFF7BF
:101AA00033FF00214FF40010FFF72EFF49E0C54837
:101AB000844208D101214020FFF733FF002140205C
:101AC000FFF72FFF3DE0C048844208D1012180206C
:101AD000FFF727FF00218020FFF723FF31E0BB48FD
:101AE000844208D101218015FFF71BFF0021A015BA
:101AF000FFF717FF25E0B648844209D10121080409
:101B0000FFF702FF00214FF48030FFF7FDFE18E0E1
:101B1000B048844209D101214804FFF7F5FE0021B5
:101B20004FF40030FFF7F0FE0BE0AB48844208D1E1
:101B300001218804FFF7E8FE00214FF48020FFF721
:101B4000E3FE10BD00220288944B98420ED0994BC0
:101B500098420BD0B0F1804F08D0914B984205D0FD
:101B6000904B984202D0904B984204D14FF68F731D
:101B70001A404B881A438D4B984207D08C4B9842A1
:101B800004D04FF6FF431A40CB881A4302808B885B
:101B900083850B880385814B98420BD0854B9842F7
:101BA00008D08B4B984205D08A4B984202D08A4B82
:101BB000984201D10B7A038601238382704770B566
:101BC000002400220023058C4FF6FE763540058464
:101BD000028C8388048B4FF68F752C40B51E2C40E9
:101BE0000D882C43751E2A400D892A434D882A43AF
:101BF0006A4DA8420BD06F4DA84208D0744DA84240
:101C000005D0744DA84202D0734DA84213D14FF6AF
:101C1000F7752A404D892A434FF6FB752A408D8877
:101C20002A434FF6FF652B404FF6FF552B408D8919
:101C30002B43CD892B4383800483CD888586028402
:101C400070BD70B5002400220023058C4FF6EF769E
:101C500035400584028C8388048B48F6FF752C4040
:101C60004FF6FF452C400D884FF6FF7606EA052516
:101C70002C434FF6DF752A400D8906EA05152A43E5
:101C80004D8806EA05152A43444DA84202D0494D25
:101C9000A8421DD14FF67F752A404D894FF6FF7639
:101CA00006EA05152A434FF6BF752A408D8806EAD5
:101CB00005152A434FF6FF352B404FF2FF752B4099
:101CC0008D8906EA85052B43CD8906EA85052B43D8
:101CD00083800483CD880587028470BD70B500249D
:101CE00000220023058C4FF6FF6635400584028CE8
:101CF0008388848B4FF68F752C404FF6FC752C40F3
:101D00000D882C434FF6FF552A400D894FF6FF767C
:101D100006EA05252A434D8806EA05252A431F4D74
:101D2000A84202D0234DA8421DD14FF2FF752A4090
:101D30004D894FF6FF7606EA05252A434FF6FF3513
:101D40002A408D8806EA05252A434EF6FF752B406A
:101D50004DF6FF752B408D8906EA05152B43CD897D
:101D600006EA05152B4383808483CD88858702840A
:101D700070BD70B5002200230024058C4EF6FF765E
:101D800035400584038C8488828B48F6FF752A4091
:101D90004FF6FF452A400D8820E00000002C01404E
:101DA0000004004000080040000C0040001000400B
:101DB0000014004000340140004C0140005001403C
:101DC0000054014000180040001C0040002000406A
:101DD0000040014000440140004801404FF6FF76BA
:101DE00006EA05252A434DF6FF752B400D8906EAC4
:101DF00005352B434D8806EA05352B43FA4DA8429D
:101E000002D0FA4DA84208D14BF6FF752C408D89BF
:101E10004FF6FF7606EA85152C4384808283CD88B1
:101E2000A0F84050038470BD828B4FF2FF331A40FC
:101E30008283828B4FF6FF7303EA01231A43828366
:101E40007047F0B50C461546002200210026078C8D
:101E50004EF6FF7C07EA0C070784828B018C4FF655
:101E6000FF7707EA043640F6FF473A404FF6FF7720
:101E700007EA05273A434FF6FF7707EA03373A4365
:101E8000D94FB8420ED0D94FB8420BD0B0F1804FE5
:101E900008D0D74FB84205D0D64FB84202D0D64F5F
:101EA000B84206D14DF6FF77394046F480573943A2
:101EB00005E047F6FF57394044F4805739438283A1
:101EC0000184F0BD828B4FF6F3731A408283828BBC
:101ED0000A4382837047F0B50C4615460022002164
:101EE0000026078C4FF6FF6C07EA0C070784828BED
:101EF000018C4FF6FF7707EA04264FF60C773A403D
:101F00004FF6FF7707EA03172F433A43B64FB8421D
:101F10000ED0B64FB8420BD0B0F1804F08D0B44FBE
:101F2000B84205D0B34FB84202D0B34FB84206D141
:101F30004FF6FF57394046F48077394305E04FF2BA
:101F4000FF57394044F48077394382830184F0BDE0
:101F5000028B4FF2FF331A400283028B4FF6FF735E
:101F600003EA01231A4302837047F0B50C46154675
:101F7000002200210026078C4FF6EF7C07EA0C07B1
:101F80000784028B018C4FF6FF7707EA041640F6B0
:101F9000FF473A404FF6FF7707EA03373A434FF6D9
:101FA000FF7707EA05273A438F4FB8420ED08F4F8D
:101FB000B8420BD0B0F1804F08D08D4FB84205D059
:101FC0008C4FB84202D08C4FB84206D14FF6DF7723
:101FD000394046F01007394305E04FF65F77394046
:101FE00044F01007394302830184F0BD028B4FF6A1
:101FF000F3731A400283028B0A4302837047F0B5E1
:102000000C46154600220021068C4FF6FE773E4016
:102010000684028B018C4FF60C7632407E1C06EA59
:1020200003162E433243704EB0420ED06F4EB04274
:102030000BD0B0F1804F08D06D4EB04205D06D4E40
:10204000B04202D06C4EB04206D14FF6FD76314020
:1020500044F00106314305E04FF6F576314044F097
:102060000106314302830184F0BD70B505460C467C
:102070005D4885420ED05D4885420BD0B5F1804F5A
:1020800008D05B48854205D05A48854202D05A485C
:10209000854200D100E000BF208850B92389A28882
:1020A00061882846FFF7ABFFE1882846FFF79EFFCF
:1020B00025E0208804280AD12389A288618828463F
:1020C000FFF753FFE1882846FFF742FF17E020881B
:1020D00008280AD12389A28861882846FFF7FBFED9
:1020E000E1882846FFF7EEFE09E02389A28861888F
:1020F0002846FFF7A6FEE1882846FFF795FE70BD4B
:102100002DE9F04105460C4600260127608808B9F4
:10211000022600E00026A088012801D1022700E065
:1021200001272088A0B92389A28861882846FFF763
:1021300066FFE1882846FFF759FF23893A46314672
:102140002846FFF712FFE1882846FFF701FF13E05A
:102150002389A28861882846FFF707FFE18828467F
:10216000FFF7F6FE23893A4631462846FFF747FF38
:10217000E1882846FFF73AFFBDE8F0810A884B88DE
:102180001A438B881A43CB881A430B891A434B890D
:102190001A438B891A43A0F8442070474FF6FF7109
:1021A000818000210180C18041800172704700213F
:1021B000018041808180C180018141818181C18113
:1021C0007047002101804180012181800021C18070
:1021D000018170470021018041808180C18001819F
:1021E0004181818170470000002C01400034014092
:1021F0000004004000080040000C004021B10288AB
:1022000042F00102028004E002884FF6FE731A4099
:102210000280704731B1B0F8442042F40042A0F887
:10222000442005E0B0F84420C2F30E02A0F8442098
:1022300070471AB183890B43838102E083898B4302
:10224000838170478182704741EA0203A0F84830D9
:1022500070471AB183890B43838102E083898B43E2
:102260008381704701894FF6F872114001817047F0
:102270000A46002101894FF68F73194011430181ED
:10228000704730B504460D4629462046FFF7F0FF5B
:10229000208940F00700208130BD2DE9F04104463F
:1022A0000D4616461F46602D06D13B46012231469B
:1022B0002046FFF75AFE05E03B4601223146204604
:1022C000FFF79DFE29462046FFF7D2FF208940F008
:1022D00007002081BDE8F08130B50C46002101895E
:1022E000C9B24FF6FF7505EA032515432543294377
:1022F000018130BD2DE9F04105460E46174698464E
:10230000002443463A4631462846FFF7E5FF2C892C
:102310004FF6F870044044F007044FF68F70044005
:1023200044F070042C81BDE8F081F0B504460D4600
:1023300016461F463B46324629462046FFF7CCFF4D
:10234000208940F480402081F0BD01858282704761
:102350000A46002101884FF68F731940114301800E
:102360007047F0B50C4615461E460021002200239A
:102370000189028B038C4FF6F877394021434FF6E1
:10238000FC473A4040F201173A434FF6DD773B40B5
:102390004FF6FF7707EA06172F433B43018102837D
:1023A0000384F0BD0A460021018B4FF68F7319405C
:1023B0001143018370470A460021018B48F6FF73E1
:1023C00019404FF6FF7303EA022319430183704754
:1023D0000A460021818B4FF68F7319401143818388
:1023E00070470A460021818B48F6FF7319404FF66B
:1023F000FF7303EA022319438183704721B10288E6
:1024000042F08002028004E002884FF67F731A4097
:102410000280704721B1828842F00402828004E089
:1024200082884FF6FB731A408280704721B1828800
:1024300042F00802828004E082884FF6F7731A4067
:102440008280704721B1828842F00102828004E0DC
:1024500082884FF6FE731A40828070470A46002138
:10246000018B4FF6F77319401143018370470A46F9
:102470000021018B4FF2FF7319404FF6FF7303EAFF
:1024800002231943018370470A460021818B4FF6CE
:10249000F77319401143818370470A460021818BED
:1024A0004FF2FF7319404FF6FF7303EA02231943FB
:1024B000818370470A460021018B4FF6FB73194058
:1024C0001143018370470A460021018B4FF6FF3309
:1024D00019404FF6FF7303EA022319430183704743
:1024E0000A460021818B4FF6FB731940114381830B
:1024F00070470A460021818B4FF6FF3319404FF693
:10250000FF7303EA02231943818370470A460021BF
:10251000018B4FF67F7319401143018370470A46C0
:102520000021018BC1F30E014FF6FF7303EA022372
:102530001943018370470A460021818B4FF67F7350
:1025400019401143818370470A460021818BC1F3F2
:102550000E014FF6FF7303EA02231943818370478C
:102560000A460021018C4FF6FD7319401143018486
:1025700070470A460021018C4FF6F773194011434A
:10258000018470470A460021018C4FF6DF73194021
:102590004FF6FF7303EA02131943018470470A469A
:1025A0000021018C4FF67F7319404FF6FF7303EA49
:1025B00002131943018470470A460021018C4FF62B
:1025C000FF5319404FF6FF7303EA022319430184B6
:1025D00070470A460021018C4FF2FF7319404FF6F5
:1025E000FF7303EA02231943018470470A4600215E
:1025F000018C4DF6FF7319404FF6FF7303EA023367
:1026000019430184704730B5002301248C40A3B2E4
:10261000048C9C430484048C02FA01F5ADB22C4373
:10262000048430BD30B5002304248C40A3B2048C54
:102630009C430484048C02FA01F5ADB22C4304845B
:1026400030BD70B50346002000241846183001251F
:102650008D40ACB21D8CA5431D8409B1082909D158
:1026600000EB6100056825F07005056005681543FD
:1026700005600EE00D1FC5F34E052844056825F4DE
:10268000E045056005684FF6FF7606EA0226354309
:10269000056070BD21B1028842F00202028004E0B0
:1026A00002884FF6FD731A400280704721B10288FC
:1026B00042F00402028004E002884FF6FB731A40E5
:1026C0000280704721B1828842F08002828004E05B
:1026D00082884FF67F731A408280704702884FF6D7
:1026E000F7731A40028002880A430280704782888A
:1026F0004FF68F731A40828082880A438280704727
:1027000002894FF6F8731A40028102890A43028156
:10271000704702894FF67F731A40028102890A438B
:102720000281704781847047818570478186704738
:102730000187704781877047A0F840107047028872
:102740004FF6FF431A40028002880A430280704716
:102750000146888E70470146088F70470146888F72
:1027600070470146B1F8400070470146888C7047B9
:102770000146088D704702460020138A0B400BB1BA
:10278000012000E000207047CA430282704730B544
:102790000246002000230024158A05EA01039589DA
:1027A00005EA010413B10CB1012000E0002030BDA6
:1027B000CA4302827047000010B50446FB488442B9
:1027C00009D101218803FFF79FF800214FF48040D1
:1027D000FFF79AF832E0F648844209D10121480413
:1027E000FFF79FF800214FF40030FFF79AF825E03B
:1027F000F048844209D101218804FFF792F80021B2
:102800004FF48020FFF78DF818E0EB48844209D19F
:102810000121C804FFF785F800214FF40020FFF7DD
:1028200080F80BE0E548844208D101210805FFF754
:1028300078F800214FF48010FFF773F810BD2DE9F0
:10284000F04786B005460E460024A24600BFA146CA
:102850000027B08900B100BF2F462C8A4CF6FF70CC
:102860000440F08804432C82AC894EF6F3100440F7
:10287000B08831890843718908430443AC81AC8A2C
:102880004FF6FF400440B0890443AC8201A8FEF734
:10289000B4FFC648874202D1DDF810A001E0DDF8A0
:1028A0000CA0A88900F4004040B10AEBCA0000EB7C
:1028B0000A1031684900B0FBF1F807E00AEBCA00E2
:1028C00000EB0A1031688900B0FBF1F86420B8FB16
:1028D000F0F004012009642101FB1089A88900F4AB
:1028E000004040B1322000EBC900B0FBF1F000F035
:1028F0000700044308E0322000EB09106421B0FB1C
:10290000F1F000F00F0004432C8106B0BDE8F08721
:102910004FF41651016000218180C18001810C219A
:10292000418100218181704710B502460020108A44
:102930004FF2FF0318400B884C8823438C882343B5
:10294000CC8823431843108210BD002101804180B0
:102950008180C180704721B1828942F40052828116
:1029600004E082894DF6FF731A4082817047F0B50A
:102970000346002400260025002040F66A17B942CD
:1029800000D100BF1846C1F3421401F01F06012711
:1029900007FA06F5012C01D10C3004E0022C01D11C
:1029A000103000E014301AB107682F43076002E0CE
:1029B0000768AF430760F0BD1AB1838A0B43838277
:1029C00002E0838A8B4383827047028A4FF6F0735A
:1029D0001A400282028A0A430282704782894FF2B9
:1029E000FF731A40828182890A438281704721B134
:1029F000828942F00202828104E082894FF6FD73EF
:102A00001A4082817047028A4FF6DF731A400282B1
:102A1000028A0A430282704721B1028A42F480424C
:102A2000028204E0028A4BF6FF731A40028270476A
:102A3000C1F308028280704701468888C0F308000D
:102A40007047818941F0010181817047028BD2B2C8
:102A50000283028B42EA012202837047028B02F456
:102A60007F420283028B0A430283704721B1828A2C
:102A700042F02002828204E0828A4FF6DF731A401D
:102A80008282704721B1828A42F01002828204E081
:102A9000828A4FF6EF731A408282704721B1828A90
:102AA00042F00802828204E0828A4FF6F7731A40ED
:102AB0008282704721B1828942F40042828103E020
:102AC0008289C2F30E028281704721B1828A42F468
:102AD0000062828204E0828A4FF2FF731A4082828F
:102AE0007047828A4FF6FB731A408282828A0A43B9
:102AF0008282704721B1828A42F00202828204E01F
:102B0000828A4FF6FD731A40828270470246002087
:102B1000B1F5007F00D100BF13880B400BB101203D
:102B200000E00020704701F40072B2F5007F00D190
:102B300000BFCA430280704770B5024600240023DC
:102B40000025002040F66A16B14200D100BFC1F353
:102B5000421501F01F03012606FA03F3012D02D1ED
:102B60009689334006E0022D02D1168A334001E0F7
:102B7000968A33400C12012606FA04F41688344073
:102B800013B10CB1012000E0002070BD10B500228F
:102B9000002340F66A14A14200D100BF0A120124AA
:102BA0009440A3B2DC43048010BD00000038014013
:102BB0000044004000480040004C004000500040ED
:102BC00008B501210820FEF785FE4FF48040ADF8DE
:102BD000000010208DF8030003208DF802006946E4
:102BE0005448FEF7BBFB4FF480415248FEF763FCAC
:102BF00008BD08B54FF48040ADF8000048208DF8BE
:102C0000030069464B48FEF7A9FB08BD08B54FF421
:102C10008040ADF8000010208DF8030003208DF8EF
:102C2000020069464348FEF799FB08BD70B50025D0
:102C3000002427E000BF4FF480413E48FEF721FC0E
:102C40000028F8D02820FEF7A4F94FF48041394835
:102C5000FEF717FC01280ED100BF4FF48041354824
:102C6000FEF70FFC0128F8D0C4F1070101208840CD
:102C7000C0B2054304E0C4F1070101208840854348
:102C8000601CC4B2082CD5DB284670BD10B50446C4
:102C9000FFF7BCFF4FF480412648FEF70EFC1220E0
:102CA000FEF79BF94FF480412248FEF704FC1E20FA
:102CB000FEF76FF9FFF79DFF4FF480411D48FEF7C7
:102CC000E0FB88BB00BF4FF480411A48FEF7D9FBF8
:102CD0000028F8D000BF4FF480411648FEF7D1FB22
:102CE0000128F8D0FFF7A2FF2070FFF79FFF607068
:102CF000FFF79CFFA070FFF799FFE070FFF796FFCA
:102D00002071FFF783FF4FF480410A48FEF7D3FBA1
:102D1000207861780844A1780844E1780844217952
:102D2000884202D1012010BD01E00020FBE7002015
:102D3000F9E70000000C014000B58DB00121084604
:102D4000FEF7D5FD01210420FEF7C4FD18208DF803
:102D500033000620ADF8300003208DF832000CA9B6
:102D60003048FEF7FBFA4FF08040FFF77BFA002077
:102D7000ADF82A00ADF826006320ADF82800472002
:102D8000ADF8240000208DF82C0009A94FF08040F8
:102D9000FEF7D8FE05A8FFF70AFA6020ADF8140088
:102DA0000020ADF81E000120ADF816000020ADF89F
:102DB0001A0005A94FF08040FEF743FF01A8FFF776
:102DC000F6F96020ADF804000020ADF80E000120F7
:102DD000ADF806000020ADF80A0001A94FF08040D0
:102DE000FEF77CFF01218807FFF708FA0DB000BD50
:102DF00070B504460D46601B86B231464FF08040E8
:102E0000FFF796FC70BD10B5044604EBC40000EB60
:102E100004104FF6FF7202EA80014FF08040FFF786
:102E200089FC10BD00080140704700000FB41CB5BC
:102E3000074B06AA7B4469460090059800F0DBF832
:102E40000020694600F0EAF81CBC5DF814FB0000A5
:102E5000E50100002DE9F0410E4604460020206205
:102E60002046E168884730B3252805D0D4E9012100
:102E70009047206A401CF2E7E16820460027884717
:102E8000050018D0A5F14100192802D820354FF4CB
:102E900000673246294620462760FDF783F940B196
:102EA000012804D0F61D26F007060836D8E7361D9F
:102EB000D6E72846DAE7206ABDE8F0812DE9F0413F
:102EC0000646002410687529314615A510D0AFF3C9
:102ED0000080002802DA404212A507E031688A0724
:102EE00001D511A502E0490704D510A5012401E090
:102EF000AFF3008000210A2306F1240707E0B0FBAE
:102F0000F3F203FB1200303078541046491C0028BD
:102F1000F5D123462A463046BDE8F04100F00CB812
:102F2000000000002D0000002B0000002000000029
:102F300070477047704770472DE9F0470D46994636
:102F40009246044600F124080168880604D5E06929
:102F500021F01001216000E00120A84201DD471BA3
:102F600000E00027A1697A1902EB0900081AA061A4
:102F70002078C00602D42046AFF30080002608E087
:102F8000D4E901211AF806009047206A401C761CFB
:102F900020624E45F4DB2078C0060AD52046AFF308
:102FA000008006E0D4E9012130209047206A401CCF
:102FB0002062381EA7F10107F4DC07E0D4E9012103
:102FC00018F805009047206A401C2062281EA5F1D1
:102FD0000105F3DC2046AFF300802078000602D51F
:102FE0000220BDE8F0870120FBE7000001694A1CD0
:102FF00002610878704700B58FB0CDE9013100213A
:10300000059105497944CDE9031011466846FFF75B
:1030100021FF0FB000BD0000E5FFFFFF0A6802F8C6
:10302000010B0A607047754600F028F8AE460500AF
:103030006946534620F00700854618B020B5FEF7D4
:10304000ADF8BDE820404FF000064FF000074FF00C
:1030500000084FF0000B21F00701AC46ACE8C009B6
:10306000ACE8C009ACE8C009ACE8C0098D467047BF
:103070000446AFF300802046FDF7A6F800487047ED
:103080009801002010B591EA030F48BF83F0004378
:1030900000F14E82841A71EB030C05D2121943EB36
:1030A0000C03001B61EB0C01DFF824E14FEA115423
:1030B000A4EB135C1EEA430F18BF9EEA445F73D073
:1030C00023EA0E03DCF1200E21EA045143F48013BD
:1030D00032D322FA0CFE10EB0E0023FA0CFE41EB69
:1030E0000E01CCF1200E03FA0EFE10EB0E0051F192
:1030F0000001B1F5801FCCF1200E32D201EB04515A
:1031000012FA0EF2BDE8104058BF7047401C38BF9D
:103110005FEA420218BF7047002814BF20F0010088
:1031200041F100014FEA410313F5001F38BF70471A
:10313000A1F1C04100F0B8B9012A43EB0302ACF1A0
:10314000200CDCF11F0E32BF4FF0000E23FA0CF3FF
:1031500010EB030041EB0451B4EB115FD0D0A1EBB5
:10316000045101F5801149085FEA300001EB045178
:103170000ED350F1000038BF12FA0EFE08D1BDE8A0
:103180001040C9E7401C38BF5FEA4202CAD1C3E71A
:10319000BDE810404FEA410313F5001F38BF7047E8
:1031A000A1F1C04100F080B99EEA445F08D011EA65
:1031B0005E0FBDE8104004BF01F0004100207047E1
:1031C000BDE8104070B500F021F900BF64FBBE3EC1
:1031D0000000E0FF491058BFC1F140415B1058BFEB
:1031E000C3F140438B42EFF30080704710F0004280
:1031F00048BF4042B0FA80F310FA03F10AD0C3F19D
:103200001D0303F580634FEA415002EB035202EBCA
:10321000D12170474FF000007047B0FA80F310FAE8
:1032200003F10AD0C3F11D0303F580634FEA415057
:103230004FEA035202EBD12170474FF00000704774
:1032400051EA030C17D41CF5801F58BFBCF5801F32
:1032500000F10680994218BF704708BF904270473E
:1032600007D711F5801F58BF13F5801F19D4994255
:103270007047894270471CF5801F08D5BCF5801F38
:10328000F7D58B4218BF704708BF824270474FF492
:10329000001C1CEB410F38BF1CEB430F01D28B42CB
:1032A000704770B500F0B2F8922449004FF0005119
:1032B0004FF08053FFF78EBFDFF848C170B51CEAAE
:1032C000111E1EBF1CEA13159EEA0C0F95EA0C0F87
:1032D00000F06F8081EA030423EA4C134EEAD47EA7
:1032E00021EA4C1141F4801143F48013AE44A1FB58
:1032F000024CA0FB0365AEF17F7E361955EB0C0541
:10330000A1FB034C4CF10003A0FB021C16EB0C06C6
:10331000654153F10003094218BF46F0010613F45A
:10332000007F0BD14FEA03314FEA0530340341EA05
:10333000155140EA16506FF003020AE04FEAC3212C
:103340004FEAC520F40241EA555140EA56506FF069
:10335000020202EB2E4201EB025585EACE710AD041
:103360005FEA440C18BF24F0004450F1000041F122
:10337000000120EAD47040F2FE7C624500D270BDAC
:10338000A84214BF4FF080444FF04044002E08BFC5
:103390000024BEF1806FA8BFA1F1C041BDE870401C
:1033A00080F282804FF0000001F1C04101F0004145
:1033B00070479EEA0C0F0CEA131518BF95EA0C0F24
:1033C00006D04FF0000081EA030E0EF0004170BD00
:1033D00000F01CF88900013E00F007B800F009B8C1
:1033E0004FEA430C5FEA5C5C08D081EA030100F01D
:1033F0005BB84FEA410C5FEA5C5CF6D14FF000002D
:10340000014970470000FF070000F87F0EF1020E2F
:103410002EF0030E5EF8046B364205D4012A43EB0E
:10342000030515F5001F12D8012841EB010C1CF50E
:10343000001F0CD80ED14FEAD17C15F5001F0CEB04
:103440004C0C0CF1020C08BF4CEBD37C04E04FF0A9
:10345000080C01E04FEAD37C0CEB4C0526FA05F68C
:1034600006F00706B6F1040C06D20EEB860CBDE89A
:1034700070404CF0010C6047DFE80CF0090B0202D1
:103480004FF000414FF00000A1F5002170BD19463A
:103490001046012851EB010418BFD4F5001484BF75
:1034A000002001F0004170BD0808A0F500114FEAAE
:1034B0003101704753EA010C17D41CF5801F58BF27
:1034C000BCF5801F00F106808B4218BF704708BF13
:1034D0008242704707D713F5801F58BF11F5801F30
:1034E00019D48B4270479B4270471CF5801F08D54A
:1034F000BCF5801FF7D5994218BF704708BF9042AE
:1035000070474FF4001C1CEB430F38BF1CEB410FFE
:1035100001D2994270470FB40CBC03BCFFF7C1BE87
:1035200010B591EA030F48BF83F000433FF5B2ADF9
:10353000841A71EB030C07D212198CF0004C43EB88
:103540000C03001B61EB0C01DFF8A4E14FEA1154FE
:10355000A4EB135C1EEA430F18BF9EEA445F00F021
:10356000B08023EA6E03524221EA0451C3EB6E039A
:1035700038BF5B1EDCF1200E25D322FA0CFE10EBC7
:103580000E0043FA0CFE41EB0E01CCF1200E03FAC3
:103590000EFE10EB0E0051F10001CCF1200E29D4EB
:1035A00012FA0EF201EB0451BDE8104058BF70470B
:1035B000401C1CBFB2F1004F704700280CBF491CD3
:1035C00020F00100704712EB020E43EB030218BF1C
:1035D0004FF0010E4EEA4202ACF1200CDCF11E0E5F
:1035E00054D943FA0CFE10EB0E0051F1FF31CCF12F
:1035F0001E0ED5D50EF1010E12FA0EFE404141EB22
:10360000010101EB445C5FEA5C5C10D910EBDE70F9
:1036100001EB045138BFBEF1004FBDE8104018BFA8
:10362000704700280CBF491C20F00100704730D2C1
:103630004FEAD42C11F5001124F400641BD0B1FA28
:1036400081F20B3AA41AA41ED2F12003914030FA61
:1036500003F31943904001EBCC71002C01EB0451B2
:10366000BDE81040A8BF704701F1C0414FF0000015
:1036700001F000417047B0FA80F310FA03F100D175
:1036800010BDE41A173C4805C90AE4E701EB0451F0
:1036900010BD491001EB0451BDE810404FEA300065
:1036A00002E04FF0000170474A0008BF0042F8D026
:1036B000B2F5001F28BF704701F000414FF0000035
:1036C00070479EEA445F07D011EA5E0FBDE81040E4
:1036D00004BF002100207047BDE8104070B5FFF71F
:1036E00095FE00BF40DFF63E83F000411046704774
:1036F0000000E0FF000000000000000000000000EB
:1037000000000000000000F800000000000000338E
:103710003000000000100C06100C06000000000035
:103720000000000040C07840C0784000043F04041E
:103730003F040400007088FC08300000001820FFDF
:10374000211E0000F008F000E018000000211C031A
:103750001E211E0000F00888700000001E21232496
:103760001927211010160E000000000000000000B4
:1037700000000000000000E0180402000000000744
:103780001820400000020418E0000000004020184B
:1037900007000000404080F0804040000202010F1E
:1037A00001020200000000F0000000000101011F02
:1037B00001010100000000000000000080B0700066
:1037C00000000000000000000000000000010101F6
:1037D0000101010100000000000000000030300085
:1037E000000000000000000080601804006018065F
:1037F0000100000000E010080810E000000F102099
:1038000020100F00001010F8000000000020203FE2
:10381000202000000070080808887000003028246C
:10382000222130000030088888483000001820200D
:1038300020110E000000C02010F800000007042432
:10384000243F240000F80888880808000019212077
:1038500020110E0000E0108888180000000F1120D1
:1038600020110E0000380808C83808000000003F8A
:10387000000000000070880808887000001C2221E9
:1038800021221C0000E010080810E0000000312296
:1038900022110F00000000C0C00000000000003036
:1038A0003000000000000080000000000000806088
:1038B0000000000000008040201008000001020409
:1038C00008102000404040404040400004040404F0
:1038D00004040400000810204080000000201008AC
:1038E00004020100007048080808F00000000030E1
:1038F00036010000C030C828E810E000071827246F
:1039000023140B000000C038E0000000203C23021C
:103910000227382008F8888888700000203F20207F
:1039200020110E00C03008080808380007182020B1
:103930002010080008F808080810E000203F2020A8
:1039400020100F0008F88888E8081000203F202089
:103950002320180008F88888E8081000203F20007D
:1039600003000000C03008080838000007182020B5
:10397000221E020008F808000008F808203F210174
:1039800001213F20000808F8080800000020203F1F
:103990002020000000000808F8080800C08080808F
:1039A0007F00000008F888C028180800203F200188
:1039B0002638200008F8080000000000203F2020E2
:1039C0002020300008F8F800F8F80800203F003FF9
:1039D000003F200008F830C00008F808203F200011
:1039E00007183F00E01008080810E0000F10202022
:1039F00020100F0008F808080808F000203F2101F7
:103A000001010000E01008080810E0000F1824244D
:103A100038504F0008F8888888887000203F2000C0
:103A2000030C302000708808080838000038202176
:103A300021221C00180808F8080818000000203F80
:103A40002000000008F808000008F808001F2020E7
:103A500020201F000878880000C8380800000738B8
:103A60000E010000F80800F80008F800033C070009
:103A7000073C0300081868808068180820302C0371
:103A8000032C30200838C800C83808000000203F48
:103A90002000000010080808C83808002038262137
:103AA00020201800000000FE020202000000007F3B
:103AB00040404000000C30C0000000000000000149
:103AC0000638C00000020202FE0000000040404034
:103AD0007F00000000000402020204000000000059
:103AE00000000000000000000000000080808080D6
:103AF00080808080000202040000000000000000BE
:103B00000000000000008080808000000019242256
:103B100022223F2008F8008080000000003F112092
:103B200020110E000000008080800000000E112097
:103B300020201100000000808088F800000E112075
:103B400020103F200000808080800000001F222283
:103B500022221300008080F0888888180020203FEF
:103B6000202000000000808080808000006B949402
:103B70009493600008F8008080800000203F2100BE
:103B800000203F2000809898000000000020203F87
:103B900020200000000000809898000000C0808075
:103BA000807F000008F8000080808000203F240211
:103BB0002D302000000808F8000000000020203F01
:103BC000202000008080808080808000203F2000B6
:103BD0003F20003F8080008080800000203F210047
:103BE00000203F200000808080800000001F2020F7
:103BF00020201F00808000808000000080FFA12026
:103C000020110E000000008080808000000E112036
:103C100020A0FF80808080008080800020203F21C5
:103C20002000010000008080808080000033242478
:103C300024241900008080E0808000000000001F24
:103C4000202000008080000000808000001F2020D5
:103C500020103F20808080000080808000010E3096
:103C60000806010080800080008080800F300C03F7
:103C70000C300F0000808000808080000020312EFA
:103C80000E312000808080000080808080818E70D6
:103C90001806010000808080808080000021302C88
:103CA0002221300000000000807C020200000000A1
:103CB000003F404000000000FF0000000000000046
:103CC000FF0000000002027C800000000040403F36
:103CD00000000000000601010202040400000000D0
:103CE00000000000043D000800000020500000001B
:103CF0006C010008543D000850000020A807000097
:103D0000880100080000000000000000130000000F
:103D1000380000000000000000000000000000006B
:103D200000A24A0400000000000000000102030499
:103D30000607080900000000000000000000000065
:103D4000000001020304010203040607080902043B
:043D50000608000061
:0400000508000131BD
:00000001FF
